:0600000014C0FECFFDCF8D
:10000600FCCFFBCFFACFF9CFF8CFF7CFF6CFF5CFAE
:10001600F4CFF3CFF2CFF1CFF0CFEFCFEECFEDCFDE
:10002600ECCFEBCFF894EE27ECBBF1E0FBBFEBBFD8
:10003600E5BFF8E1F1BDE1BD8DE0A2E0BB27ED93A0
:100046008A95E9F780E092E0A0E6ED930197E9F75B
:10005600EFE5EDBFE2E0EEBFC0EED0E06EC0AA93E2
:10006600C0D069C0AA93C398BCD0C4D0E460C9D03C
:100076008FE897E00197F1F7C29A5DC0AA93C39AF9
:10008600E881E07FEC60BDD0B5D0EC60BAD083E902
:100096008A95F1F7C29A4FC0A2E3B9D0A5E0B7D0CE
:1000A600A1E0B5D0B8D0A0E2DADFA8E2DBDFA0E1BC
:1000B600D9DFACE0D7DFA6E0D5DFA1E0D3DFABD058
:1000C6000895AA931A93E981E03019F4AA81A058F9
:1000D60002C0AA81A054C6DF188123960895BA9358
:1000E600AA93A981AA234AF4E881F981AFEFBFEF69
:1000F600BED0E883F983ADE2C1DF90D094D08ED034
:10010600D3D0DF01EAE0F0E08ED0A881B981EAE041
:10011600F0E0CAD0E05DAE2FB1DF22960895AA9333
:10012600E881E062E7B985E28A95F1F7369A349B71
:10013600FECF349AE5B121960895E0E0EBBBEABB29
:10014600E8BBEFEFE7BBE5BBE0E0E4BBE2BBE1BB4E
:10015600E3BFE2BFECBFEFBDEEBDEDBDECBDE7BD5D
:10016600E6BDEBBDEABDE9BDE8BDE2BDE5BDE4BD6A
:10017600E3BDE5BFE4BFE9BFEAB9E0E8E8B9E0E01E
:10018600E0BFE0E2E7B9E4E8E6B9E0B7EF7EE0BF5A
:10019600E0E0EDB9E6BF80DFE0E049D0A0E04AD07C
:1001A600E4E045D0A1E046D0E8E041D0A2E042D06C
:1001B600ECE03DD0A3E03ED0E0E040D0A4E03AD071
:1001C600E4E03CD0A5E036D0E8E038D0A6E032D076
:1001D600ECE034D0A7E02ED0ACE2B1E032D0DCCFF8
:1001E600FFCFE881E07FE460E8BB84E08A95F1F721
:1001F600C298089582E18A95F1F7E881E295E07F59
:100206000895E8BB84E08A95F1F7C2980895B0E0B6
:1002160018D0A0E324CFA1E0B0E013C0A881B98133
:10022600E4E6F0E008953BD0E05DAE2F27CFEA93F9
:10023600A0E047CF74DFF0E0DF0151CFEA93A1E001
:1002460040CF109639F08DEC9AE00197F1F7A8951A
:100256001197C9F70895F195E195F0400895FA9F31
:10026600F02DEB9FF00DEA9FE02DF10D08952AD0B9
:10027600F6DF0EF4F0DF08950024112490E1AA0FB2
:10028600BB1F001C111C0E1A1F0A18F40E0E1F1E8F
:1002960001C0A1609A9599F7FD01D001089512D089
:1002A600EBDF0EF4D8DF0895E894B7FF04C0A095FD
:1002B600B09511966894F7FDCEDFDEDFFD010EF4F2
:1002C600CADF0895E894F7FF02C0C5DF6894B7FF58
:1002D60006C0A095B095119600F8039400FA08950B
:00000001FF
