:100000000C9447000C9476000C9476000C947600C7
:100010000C9476000C9476000C9476000C9460039B
:100020000C9487030C94F6030C9476000C94D00384
:100030000C9476000C9476000C94EB030C947600F0
:100040000C9476000C9476000C9476000C94760058
:100050000C9476000C9476000C9476000C94760048
:100060000C9476000C9476000C9476000C94760038
:100070000C94AE030C9476000C940F030C94760051
:100080000C9476000C9476000C9476008105112473
:100090001FBECFEFD0E1DEBFCDBF12E0A0E0B1E0E8
:1000A000E2ECFBE000E00BBF02C007900D92A0382D
:1000B000B107D9F722E0A0E8B2E001C01D92A33B4E
:1000C000B207E1F710E0CEE8D0E000E006C02297EA
:1000D0000109FE010BBF0E94DB05CC38D10780E08F
:1000E0000807A9F70E94F3040C94DF050C940000A4
:1000F000689420F8DB9A0895EFE9FFE03197F1F773
:1001000000C0000001970097B9F708958CED95E0C5
:100110009BBD8ABD99BD88BD90937900809378007E
:100120000895FC01109285001092840010928700BF
:10013000109286001082118212821382089577FF36
:1001400009C0719561957109709385006093840071
:100150001D9805C070938500609384001D9A57FF19
:1001600009C05195419551095093870040938600ED
:100170001A98089550938700409386001A9A08951C
:1001800013BE10BEC4980895AB014D5751094439B0
:100190005642C0F5683E83E0780758F08BE183BF94
:1001A00012BE9B0140E050E060E970ED83E090E01A
:1001B0001CC0643F21E0720758F08CE183BF12BE7F
:1001C0009B0140E050E068E478EE81E090E00DC0F3
:1001D0006A3F710570F08DE183BF12BE9B0140E064
:1001E00050E06CEA77E081E090E00E94B90521BF21
:1001F00008958EE183BF12BE86ED93E80E949105BB
:1002000061BF08950C94C0000F931F93CF93DF93A9
:10021000EC018A010E94C400C8010E947C00CE014A
:10022000DF91CF911F910F910C94C000CF93DF937A
:10023000EC0148EC50E068EE73E00E94040142E3F8
:1002400050E064EF71E0CE010E94040144E650E00A
:1002500068EB7BE0CE010E94040142E350E064EFD2
:1002600071E0CE010E94040148EC50E068EB7BE0B5
:10027000CE010E94040142E350E064EF71E0CE0140
:100280000E94040144E650E060ED77E0CE01DF918A
:10029000CF910C940401607F64606BBB85E08A950C
:1002A000F1F70000DA980895D898862F807F20FE15
:1002B00002C08C6001C084608BBB85E08A95F1F739
:1002C0000000DA989AE19A95F1F700C070E0E4E056
:1002D000660F771FEA95E1F720FE02C06C6001C04F
:1002E00064606BBB85E08A95F1F70000DA988FEEC9
:1002F0009AE00197F1F700C00000DA9A0895D89AC1
:10030000862F807F20FE02C08D6001C085608BBB80
:1003100085E08A95F1F70000DA988AE18A95F1F78D
:1003200000C070E0F4E0660F771FFA95E1F720FE59
:1003300002C06D6001C065606BBB85E08A95F1F716
:100340000000DA9885ED8A95F1F70000DA9A0895B1
:10035000CF93DF93EC012FEF80E792E021508040B4
:100360009040E1F700C0000060E3CE010E944B0125
:100370008FE19EE40197F1F700C0000060E3CE0139
:100380000E944B018FE99FE00197F1F700C0000048
:1003900060E3CE010E944B018FE99FE00197F1F7E6
:1003A00000C0000060E2CE010E944B0168E2CE0175
:1003B0000E94540160E1CE010E94540166E0CE012A
:1003C0000E9454016CE0CE010E94540161E0CE0114
:1003D0000E9454018FE39FE10197F1F700C00000F4
:1003E000DF91CF910895411102C0605801C060545F
:1003F0000C9454010F931F93CF93DF938C01EB0167
:100400006991662321F0C8010E947F01F9CFDF9135
:10041000CF911F910F9108950F931F93CF93DF9367
:10042000EC018A01462F60E00E94F301B801CE0181
:10043000DF91CF911F910F910C94FA0161E00E941E
:1004400054018FE39FE10197F1F700C00000089588
:10045000CF92DF92FF920F931F93CF93DF931F9260
:10046000CDB7DEB78C01F42E462F60E059830E9491
:10047000F301CF2C5981D52EF12CF60161916F013A
:10048000C8010E947F01FFE728E381E0F15020408E
:100490008040E1F700C00000F39490E1F912EDCF45
:1004A0000F90DF91CF911F910F91FF90DF90CF9030
:1004B0000895EF92FF920F931F93CF93DF9300D095
:1004C000CDB7DEB78C01262F7A012295220F220F9D
:1004D000207C205840E1E40EF11C3FE0632F620FC6
:1004E000C80129833A830E945401F70162917F0178
:1004F000C8010E947F01FFE748E381E0F1504040DE
:100500008040E1F700C000003A81315029813F3F2F
:1005100029F70F900F90DF91CF911F910F91FF90CE
:10052000EF90089561110C947800E89420F8DB981E
:100530000895689422F8606267B985E38A95F1F7B7
:100540000000369A349BFECF349AE89422F885B1A5
:10055000089522FCFFCF60E00E9499022EE5829F61
:10056000C001112463E170E00E94A505CB0108954C
:1005700022FC54C060E00E949902833808F04EC00B
:10058000F89440E050E060E070E084EA92E00E947D
:100590009F0082EA92E00E941E0242E051E060E089
:1005A00082EA92E00E940C0243E151E061E082EABB
:1005B00092E00E940C0244E650E060ED77E083EAAE
:1005C00092E00E9404012FEF81EE94E021508040E0
:1005D0009040E1F700C0000044E650E060ED77E0B5
:1005E00083EA92E00E9404012FEF85EA9EE0215009
:1005F00080409040E1F700C000000E9478002FEF9B
:1006000089E698E1215080409040E1F700C0000069
:1006100060E082EA92E00E949202CDCF08951F929C
:100620000F920FB60F9211240BB60F928F93EF9388
:10063000FF93CF93DF9300D0CDB7DEB780919B00BF
:100640008A8380919C0089838A818C71E1F4E09196
:100650008F02F0E08981E057FD4F808380918F0207
:100660008F5F80938F02803111F410928F028091FE
:100670008D028F5F80938D02803129F410928D025C
:1006800081E080938C020F900F90DF91CF91FF91CA
:10069000EF918F910F900BBE0F900FBE0F901F9098
:1006A0001895FC01138281E08483858380818660B4
:1006B0008160808384E690E0978386831086089526
:1006C0001F920F920FB60F9211248F939F938091D8
:1006D000A8029091A9020E9B03C0B09B03C005C065
:1006E000B09B03C0F894019602C0F89401979093D0
:1006F000A9028093A8028091A6028F5F8093A60230
:100700009F918F910F900FBE0F901F9018951F9281
:100710000F920FB60F9211248F939F938091AA028C
:100720009091AB020F9B03C0B29B03C005C0B29B6C
:1007300003C0F894019702C0F89401969093AB021D
:100740008093AA028091A7028F5F8093A7029F9156
:100750008F910F900FBE0F901F9018951F920F92C0
:100760000FB60F9211242F938F939F938091AF0216
:100770009091B0020196893E23E0920728F490936D
:10078000B0028093AF0204C01092B0021092AF0288
:100790009F918F912F910F900FBE0F901F901895E2
:1007A0001F920F920FB60F9211248F938091010127
:1007B000815080930101811105C085E08093010182
:1007C0008AEA01C082E08FBD78948F910F900FBEAE
:1007D0000F901F9018951F920F920FB60F92112431
:1007E00078940F900FBE0F901F9018951F920F9244
:1007F0000FB60F9211242F938F939F93789480912B
:100800000001815009F48AE0809300018091000189
:10081000843069F08930A9F48091A6029091AE02EB
:10082000282F291B2093A4028093AE020AC0809136
:10083000A7029091AD02282F291B2093A502809337
:10084000AD029F918F912F910F900FBE0F901F902F
:100850001895EF92FF920F931F93CF93DF93E89435
:1008600020F8E89421F8E89422F81BBA8FEF8ABBAD
:1008700095E098BB98EF97BB85BB90EF94BB12BAFD
:1008800091BB20EC23B99CE392B9109262001092C4
:100890006100809365001092640010BE13BE12BE0A
:1008A00011BE8AEA8FBD82E18EBD1DBC1CBC80EAF0
:1008B0009FE097BD86BD8BE085BD14BC8AEF83BDEC
:1008C00082EF80938B0081E180938A0010928900EF
:1008D0001092880081E08093810080E980938000FD
:1008E000109287001092860010928500109284006A
:1008F0001092830088EC8093820010926A0080E559
:100900008ABF29BF28BF84EA87BF82E080937D0029
:1009100010929B0088E980939A0086E080939D0066
:100920001092980087E68093990080E888B910BCFF
:10093000F89482EA92E00E94A8010E94780041EFB8
:1009400051E060E082EA92E00E940C0260EC82EAF0
:1009500092E00E94540181EA92E00E94A9028C0177
:1009600064E670E00E94A5057C01605D82EA92E089
:100970000E947F016EE282EA92E00E947F01CAE05B
:10098000D0E0C701BE010E94A505605D82EA92E049
:100990000E947F01C801BE010E94A50560E3680FA7
:1009A00082EA92E00E947F0162E072E082EA92E0D5
:1009B0000E94FA0183EA92E00E9416012FEF83EC75
:1009C00099E0215080409040E1F700C0000081EAAA
:1009D00092E00E94B8027894DF91CF911F910F911D
:1009E000FF90EF9008950E94290482EA92E00E940D
:1009F0001E0248E052E060E082EA92E00E94590262
:100A000049E152E061E082EA92E00E94280283EA32
:100A100092E00E9416019B9915C044E650E064E6FE
:100A200070E084EA92E00E949F006EE882EA92E021
:100A30000E94540161E382EA92E00E947F014AE24F
:100A400052E059C09A9915C040E951E060E971E05F
:100A500084EA92E00E949F006EE882EA92E00E949F
:100A6000540162E382EA92E00E947F014BE352E08C
:100A700042C0999915C04CE95FEF6CE97FEF84EAB9
:100A800092E00E949F006EE882EA92E00E94540188
:100A900063E382EA92E00E947F014CE452E02BC0C3
:100AA000989915C040E75EEF60E77EEF84EA92E038
:100AB0000E949F006EE882EA92E00E94540164E383
:100AC00082EA92E00E947F014DE552E014C040E0CE
:100AD00050E060E070E084EA92E00E949F006FE8DE
:100AE00082EA92E00E94540168E782EA92E00E9462
:100AF0007F014EE652E061E082EA92E00E940C0241
:100B00008ACF8CEA92E00E94860084EA92E00E94FA
:100B1000910080E287B984E886B982E892E00C947B
:100B20005103AA1BBB1B51E107C0AA1FBB1FA6177D
:100B3000B70710F0A61BB70B881F991F5A95A9F786
:100B400080959095BC01CD01089597FB072E16F472
:100B5000009407D077FD09D00E94910507FC05D0CD
:100B60003EF4909581959F4F0895709561957F4FC4
:100B70000895A1E21A2EAA1BBB1BFD010DC0AA1FDE
:100B8000BB1FEE1FFF1FA217B307E407F50720F0F6
:100B9000A21BB30BE40BF50B661F771F881F991F71
:100BA0001A9469F760957095809590959B01AC01BA
:100BB000BD01CF0108950790F691E02D0994F894B6
:020BC000FFCF65
:100BC2000A0556732E426174657265203C20362EEA
:100BD20035560049736920556C616E672042617415
:100BE200657265004B616C6962726173692053655D
:100BF2006E736F720053656C65736169203E3E3E91
:100C02003E3E3E3E3E00446968656E74696B616EAD
:100C1200203E3E3E3E3E004D657261682D48696A47
:100C220061752D4269727500312E5761726E6120B5
:100C32004D65726168203E3E0054656B616E2054C2
:100C42006F6D626F6C20313C3C00322E5761726EC8
:100C5200612048696A6175203E3E00332E576172F9
:100C62006E612042697275203E3E3E00342E57610D
:100C7200726E6120486974616D203E3E00204D65B0
:100C82007261682064616E20426972752000322EA2
:100C92005761726E61204269727520203E3E0033B8
:100CA2002E5761726E6120486974616D203E3E3E2E
:100CB20000546567616E67616E204261746572659A
:100CC2003A0020566F6C7400507573682042757438
:100CD200746F6E203A2078200041747572204B6543
:100CE20063702E204D6F746F7200526F626F7420AA
:100CF2004D616A7520202032352500526F626F7473
:100D0200204D616A7520203130302500526F626FAC
:100D120074204D756E6475722032352500526F62F3
:100D22006F74204D756E6475723130302500526FCC
:100D3200626F742053746F702020202020200000E6
:00000001FF
