:100000000C9447000C9476000C9476000C947600C7
:100010000C9476000C9476000C9476000C946A068E
:100020000C9491060C9400070C9476000C94DA065C
:100030000C9476000C9476000C94F5060C947600E3
:100040000C9476000C9476000C9476000C94760058
:100050000C9476000C9476000C9476000C94760048
:100060000C9476000C9476000C9476000C94760038
:100070000C94B8060C9476000C94F5040C9476005D
:100080000C9476000C9476000C9476008F08112462
:100090001FBECFEFD0E1DEBFCDBF12E0A0E0B1E0E8
:1000A000EEEDF1E100E00BBF02C007900D92A4332A
:1000B000B107D9F722E0A4E3B2E001C01D92AB364C
:1000C000B207E1F710E0CEE8D0E000E006C02297EA
:1000D0000109FE010BBF0E94E908CC38D10780E07E
:1000E0000807A9F70E9429080C94ED080C94000059
:1000F000689420F8DB9A0895EFE9FFE03197F1F773
:1001000000C0000001970097B9F708958CED95E0C5
:100110009BBD8ABD99BD88BD90937900809378007E
:100120000895FC01108211821092850010928400C3
:100130001092870010928600128213821482158218
:100140000895E89423F877FF09C0719561957109C6
:1001500070938500609384001D9805C0709385009E
:10016000609384001D9A57FF09C05195419551092C
:1001700050938700409386001A9808955093870003
:10018000409386001A9A0895FC01318113166CF58C
:100190008381381BF8E03F02C001112420916A02DC
:1001A000230F293214F028E203C0283D0CF428ED77
:1001B00020936A0220916A023AE02302800D911D89
:1001C00011248139E1E09E071CF080E991E003C031
:1001D000181619062CF490938700809386000895D2
:1001E0001092870010928600089510928700109256
:1001F000860010926A020895FC01308113166CF596
:100200008281381BF8E03F02C0011124209169026D
:10021000230F293214F028E203C0283D0CF428ED06
:1002200020936902209169023AE02302800D911D1A
:1002300011248139E1E09E071CF080E991E003C0C0
:10024000181619062CF49093850080938400089565
:1002500010928500109284000895109285001092EB
:10026000840010926902089513BE10BEC4980895C8
:10027000AB014D57510944395642C0F5683E83E001
:10028000780758F08BE183BF12BE9B0140E050E03D
:1002900060E970ED83E090E01CC0643F21E07207EC
:1002A00058F08CE183BF12BE9B0140E050E068E44F
:1002B00078EE81E090E00DC06A3F710570F08DE14D
:1002C00083BF12BE9B0140E050E06CEA77E081E022
:1002D00090E00E94C70821BF08958EE183BF12BE3F
:1002E00086ED93E80E949F0861BF08950C94340145
:1002F0000F931F93CF93DF93EC018A010E94380183
:10030000C8010E947C00CE01DF91CF911F910F9117
:100310000C943401CF93DF93EC0148EC50E068EE8D
:1003200073E00E94780142E350E064EF71E0CE0197
:100330000E94780144E650E068EB7BE0CE010E9429
:10034000780142E350E064EF71E0CE010E94780151
:1003500048EC50E068EB7BE0CE010E94780142E37C
:1003600050E064EF71E0CE010E94780144E650E075
:1003700060ED77E0CE01DF91CF910C947801607F42
:1003800064606BBB85E08A95F1F70000DA98089508
:10039000D898862F807F20FE02C08C6001C08460C8
:1003A0008BBB85E08A95F1F70000DA989AE19A957F
:1003B000F1F700C070E0E4E0660F771FEA95E1F71F
:1003C00020FE02C06C6001C064606BBB85E08A9552
:1003D000F1F70000DA988FEE9AE00197F1F700C08C
:1003E0000000DA9A0895D89A862F807F20FE02C0F6
:1003F0008D6001C085608BBB85E08A95F1F70000B8
:10040000DA988AE18A95F1F700C070E0F4E0660FAF
:10041000771FFA95E1F720FE02C06D6001C06560AC
:100420006BBB85E08A95F1F70000DA9885ED8A9537
:10043000F1F70000DA9A0895CF93DF93EC012FEFE4
:1004400080E792E0215080409040E1F700C000003A
:1004500060E3CE010E94BF018FE19EE40197F1F7B6
:1004600000C0000060E3CE010E94BF018FE99FE061
:100470000197F1F700C0000060E3CE010E94BF01C8
:100480008FE99FE00197F1F700C0000060E2CE0124
:100490000E94BF0168E2CE010E94C80160E1CE0166
:1004A0000E94C80166E0CE010E94C8016CE0CE0146
:1004B0000E94C80161E0CE010E94C8018FE39FE164
:1004C0000197F1F700C00000DF91CF91089541112D
:1004D00002C0605801C060540C94C8010F931F9370
:1004E000CF93DF938C01EB016991662321F0C80162
:1004F0000E94F301F9CFDF91CF911F910F910895E1
:100500000F931F93CF93DF93EC018A01462F60E096
:100510000E946702B801CE01DF91CF911F910F9128
:100520000C946E0261E00E94C8018FE39FE1019785
:10053000F1F700C0000008950F931F93CF93DF934E
:10054000EC01162F1295110F110F107C10580FE0AF
:10055000602F610FCE010E94C80160E2CE010E94AF
:10056000F3012FE788E391E0215080409040E1F7CC
:1005700000C00000015060F7DF91CF911F910F91F3
:100580000895FF920F931F93CF93DF93EC01162FE3
:100590001295110F110F107C105807E0AFE0FA2EE2
:1005A000F10E602F610FCE010E94C80160E2CE0102
:1005B0000E94F3012FE788E391E0215080409040B2
:1005C000E1F700C000006F2D601BCE010E94C80142
:1005D00060E2CE010E94F3012FE788E391E0215011
:1005E00080409040E1F700C000000150D0F6DF915C
:1005F000CF911F910F91FF900895FF920F931F933A
:10060000CF93DF93EC01162F1295110F110F107C71
:10061000105800E0BFE0FB2EF10E602F610FCE01FD
:100620000E94C80160E2CE010E94F3012FE788E337
:1006300091E0215080409040E1F700C000006F2D14
:10064000601BCE010E94C80160E2CE010E94F3014E
:100650002FE788E391E0215080409040E1F700C00F
:1006600000000F5F0830C9F6DF91CF911F910F9105
:10067000FF900895CF92DF92FF920F931F93CF9335
:10068000DF931F92CDB7DEB78C01F42E462F60E0CA
:1006900059830E946702CF2C5981D52EF12CF60187
:1006A00061916F01C8010E94F301FFE728E381E037
:1006B000F15020408040E1F700C00000F39490E149
:1006C000F912EDCF0F90DF91CF911F910F91FF9015
:1006D000DF90CF900895EF92FF920F931F93CF93E7
:1006E000DF9300D0CDB7DEB78C01262F7A0122959B
:1006F000220F220F207C205840E1E40EF11C3FE045
:10070000632F620FC80129833A830E94C801F70151
:1007100062917F01C8010E94F301FFE748E381E095
:10072000F15040408040E1F700C000003A81315074
:1007300029813F3F29F70F900F90DF91CF911F91B3
:100740000F91FF90EF900895AF92BF92CF92DF92FA
:10075000EF92FF920F931F93CF93DF931F92CDB72A
:10076000DEB78C01262F5A012295220F220F207C02
:10077000205838E0A30EB11C750187E0D82E9FE009
:10078000C92EC20E6D2D620FC80129830E94C801B7
:10079000F50162915F01C8010E94F301FFE738E3B0
:1007A00081E0F15030408040E1F700C000006C2D46
:1007B0006D19C8010E94C801F70161917F01C8014C
:1007C0000E94F301FFE738E381E0F15030408040C0
:1007D000E1F700C00000DA9429819FEFD912D2CF4F
:1007E0000F90DF91CF911F910F91FF90EF90DF90CD
:1007F000CF90BF90AF900895AF92BF92CF92DF920B
:10080000EF92FF920F931F93CF93DF931F92CDB779
:10081000DEB78C016295660F660F607C60585A01E6
:100820002FE0D22ED60E7A0130E1E30EF11C37E034
:10083000C32EC60E262F220F215F622F6D19C8010D
:1008400029830E94C801F50161915F01C8010E94DE
:10085000F301FFE738E381E0F15030408040E1F7F9
:1008600000C000006D2DC8010E94C801F70162910F
:100870007F01C8010E94F301FFE738E381E0F150F6
:1008800030408040E1F700C00000DA942981DC109C
:10089000D4CF0F90DF91CF911F910F91FF90EF90E8
:1008A000DF90CF90BF90AF900895EF92FF920F939B
:1008B0001F93CF93DF938C01C7E0D0E0E62EF12C9D
:1008C000C7010C2E02C0959587950A94E2F780FD2A
:1008D00002C060E301C061E3C8010E94F3012197F7
:1008E00078F7DF91CF911F910F91FF90EF900895CE
:1008F00061110C947800E89420F8DB9808956894CE
:1009000022F8606267B985E38A95F1F70000369AAC
:10091000349BFECF349AE89422F885B1089522FCE6
:10092000FFCF60E00E947F042EE5829FC00111246A
:1009300063E170E00E94B308CB01089522FC54C02B
:1009400060E00E947F04833808F04EC0F89440E0D5
:1009500050E060E070E088E592E00E94A10086E54A
:1009600092E00E94920242E051E060E086E592E06F
:100970000E94800243E151E061E086E592E00E943E
:10098000800244E650E060ED77E087E592E00E9467
:1009900078012FEF81EE94E0215080409040E1F704
:1009A00000C0000044E650E060ED77E087E592E0AB
:1009B0000E9478012FEF85EA9EE021508040904010
:1009C000E1F700C000000E9478002FEF89E698E16F
:1009D000215080409040E1F700C0000060E086E5D3
:1009E00092E00E947804CDCF08951F920F920FB627
:1009F0000F9211240BB60F928F93EF93FF93CF9327
:100A0000DF9300D0CDB7DEB780919B008A838091C1
:100A10009C0089838A818C71E1F4E0914302F0E0CB
:100A20008981EC5BFD4F8083809143028F5F8093CF
:100A30004302803111F410924302809141028F5F92
:100A400080934102803129F41092410281E0809329
:100A500040020F900F90DF91CF91FF91EF918F9116
:100A60000F900BBE0F900FBE0F901F901895209106
:100A700041022223C9F0E89421F8E0914202F0E01B
:100A8000EC5BFD4F8081909142029F5F9093420208
:100A9000903111F410924202F894909141029150D9
:100AA000909341027894089525E02A95F1F700008B
:100AB00001970097E1F6689421F880E008959091FD
:100AC0009B0095FFFCCF80939C000895CF93DF930C
:100AD0001F92CDB7DEB7642B862F69830E945F0516
:100AE00088E893E10E9437056981861307C088E88A
:100AF00093E10F90DF91CF910C94370580E00F9038
:100B0000DF91CF9108959B9B02C09899FCCF9B9950
:100B100006C0842F862B0E945F0581E0089580E047
:100B20000E945F0580E0089586E592E00E949202AF
:100B300044E251E060E086E592E00C9480020E947D
:100B4000940545E351E061E086E592E00C943A03B8
:100B50000E94940546E451E061E086E592E00C9441
:100B60003A031F93CF93DF93EC01162F0E94940555
:100B700047E551E061E086E592E00E94800244EFA3
:100B800051E068EB7BE087E592E00E9478012FEF6F
:100B900083ED90E3215080409040E1F700C00000D9
:100BA00086E592E00E949202812F806F0E945F058D
:100BB00048E651E060E086E592E00E943A0349E7AA
:100BC00051E061E086E592E00E946B0340EF612F07
:100BD000CE010E948305882309F465C044EF51E0EB
:100BE00068EB7BE087E592E00E94780160E086E5B3
:100BF00092E00E949C024AE851E060E086E592E0C3
:100C00000E943A0340EF612FCE010E9483058823A2
:100C100009F449C044EF51E068EB7BE087E592E0DE
:100C20000E94780160E086E592E00E949C024BE918
:100C300051E060E086E592E00E943A0340EF612FC8
:100C4000CE010E948305882371F144EF51E068EBE7
:100C50007BE087E592E00E94780160E086E592E023
:100C60000E949C024CEA51E060E086E592E00E941E
:100C70003A0340EF612FCE010E948305882399F04B
:100C800048EC50E068EB7BE087E592E00E94780159
:100C900088E893E10E943705803F29F4CE010E9445
:100CA0009F0581E004C0CE010E94A80580E0DF918D
:100CB000CF911F910895FC01138281E08483858385
:100CC000808186608160808384E690E0978386835C
:100CD000108608951F920F920FB60F9211248F93D2
:100CE0009F9380915E0290915F020E9B03C0B09B28
:100CF00003C005C0B09B03C0F894019602C0F894ED
:100D0000019790935F0280935E0280915C028F5FF7
:100D100080935C029F918F910F900FBE0F901F9058
:100D200018951F920F920FB60F9211248F939F93D5
:100D300080916002909161020F9B03C0B29B03C03F
:100D400005C0B29B03C0F894019702C0F8940196C5
:100D5000909361028093600280915D028F5F809327
:100D60005D029F918F910F900FBE0F901F9018956D
:100D70001F920F920FB60F9211242F938F939F9370
:100D800080916502909166020196893E23E0920768
:100D900028F4909366028093650204C01092660264
:100DA000109265029F918F912F910F900FBE0F901F
:100DB0001F9018951F920F920FB60F9211248F93C8
:100DC00080910101815080930101811105C085E06E
:100DD000809301018AEA01C082E08FBD78948F91EF
:100DE0000F900FBE0F901F9018951F920F920FB685
:100DF0000F92112478940F900FBE0F901F901895AA
:100E00001F920F920FB60F9211240BB60F922F93D1
:100E10003F934F935F936F937F938F939F93AF9382
:100E2000BF93EF93FF93789480910001815009F470
:100E30008AE080930001809100018430D1F018F4A1
:100E4000833011F127C0883069F0893019F580911D
:100E50005C0290916402282F291B20935A028093F0
:100E6000640218C023FE16C088E592E00E94FC00D0
:100E700011C080915D0290916302282F291B20935D
:100E80005B028093630206C023FE04C088E592E003
:100E90000E94C400FF91EF91BF91AF919F918F91FC
:100EA0007F916F915F914F913F912F910F900BBE6A
:100EB0000F900FBE0F901F901895EF92FF920F9317
:100EC0001F93CF93DF93E89420F8E89421F8E894F7
:100ED00022F8E89423F81BBA8FEF8ABB95E098BB01
:100EE00098EF97BB85BB90EF94BB12BA91BB20ECF7
:100EF00023B99CE392B91092620010926100809332
:100F000065001092640010BE13BE12BE11BE8AEAC4
:100F10008FBD82E18EBD1DBC1CBC80EA9FE097BDE9
:100F200086BD8BE085BD14BC8AEF83BD82EF8093C4
:100F30008B0081E180938A001092890010928800D2
:100F400081E08093810080E9809380001092870087
:100F500010928600109285001092840010928300F7
:100F600088EC8093820010926A0080E58ABF29BFD6
:100F700028BF84EA87BF82E080937D0010929B00A7
:100F800088E980939A0086E080939D0010929800F3
:100F900087E68093990080E888B910BCF89486E5CC
:100FA00092E00E941C020E94780041EF51E060E054
:100FB00086E592E00E94800260EC86E592E00E9465
:100FC000C80185E592E00E948F048C0164E670E020
:100FD0000E94B3087C01605D86E592E00E94F30107
:100FE0006EE286E592E00E94F301CAE0D0E0C7011C
:100FF000BE010E94B308605D86E592E00E94F301A5
:10100000C801BE010E94B30860E3680F86E592E064
:101010000E94F30162E072E086E592E00E946E02B7
:1010200087E592E00E948A012FEF83EC99E021503E
:1010300080409040E1F700C0000085E592E00E940A
:101040009E047894DF91CF911F910F91FF90EF90C4
:1010500008950E945D0786E592E00E9492029899A9
:1010600005C060E08FE392E00E94B10548E052E0E5
:1010700060E086E592E00E94FC0349E152E061E015
:1010800086E592E00E94A4032FEF83ED90E32150C8
:1010900080409040E1F700C0000060E086E592E00B
:1010A0000E94FD0261E086E592E00E94C1024AE2F0
:1010B00052E060E086E592E00E94800268E886E502
:1010C00092E00E94C80140E460E08FE392E00E9459
:1010D0006605682F86E592E00E94550460EC86E57F
:1010E00092E00E94C80140E260E08FE392E00E943B
:1010F0006605682F86E592E00E94550468EC86E557
:1011000092E00E94C80140E160E08FE392E00E941B
:101110006605682F86E592E00E945504CFCF82E6EF
:1011200092E00E94860088E592E00E94910080E2B1
:1011300087B984E886B986E392E00C945B06AA1B23
:10114000BB1B51E107C0AA1FBB1FA617B70710F0B2
:10115000A61BB70B881F991F5A95A9F780959095E4
:10116000BC01CD01089597FB072E16F4009407D01B
:1011700077FD09D00E949F0807FC05D03EF49095AA
:1011800081959F4F0895709561957F4F0895A1E2D5
:101190001A2EAA1BBB1BFD010DC0AA1FBB1FEE1FF1
:1011A000FF1FA217B307E407F50720F0A21BB30B3C
:1011B000E40BF50B661F771F881F991F1A9469F7B8
:1011C00060957095809590959B01AC01BD01CF0114
:0E11D00008950790F691E02D0994F894FFCF52
:1011DE000A0556732E426174657265203C20362EC8
:1011EE0035560049736920556C616E6720426174F3
:1011FE00657265004B616C6962726173692053653B
:10120E006E736F720053656C65736169203E3E3E6E
:10121E003E3E3E3E3E00446968656E74696B616E8B
:10122E00203E3E3E3E3E004D657261682D48696A25
:10123E0061752D4269727500312E5761726E612093
:10124E004D65726168203E3E0054656B616E2054A0
:10125E006F6D626F6C20313C3C00322E5761726EA6
:10126E00612048696A6175203E3E00332E576172D7
:10127E006E612042697275203E3E3E00342E5761EB
:10128E00726E6120486974616D203E3E00204D658E
:10129E007261682064616E20426972752000322E80
:1012AE005761726E61204269727520203E3E003396
:1012BE002E5761726E6120486974616D203E3E3E0C
:1012CE0000546567616E67616E2042617465726578
:1012DE003A0020566F6C74003E3E204164526F6996
:1012EE00542056312E203C3C0053656E736F722095
:1012FE004761726973205247420053656E735247BD
:04130E00423A00005F
:00000001FF
