:100000000C9447000C9476000C9476000C947600C7
:100010000C9476000C9476000C9476000C94B90342
:100020000C94E7030C94AC040C9476000C947F04BD
:100030000C9476000C9476000C94A1040C94760039
:100040000C9476000C9476000C9476000C94760058
:100050000C9476000C9476000C9476000C94760048
:100060000C9476000C9476000C9476000C94760038
:100070000C9415040C9476000C948A010C94760070
:100080000C9476000C9476000C947600A30B11244B
:100090001FBECFEFD0E1DEBFCDBF12E0A0E0B1E0E8
:1000A000E6EFF7E100E00BBF02C007900D92A23B24
:1000B000B107D9F722E0A2EBB2E001C01D92A13E48
:1000C000B207E1F710E0CEE8D0E000E006C02297EA
:1000D0000109FE010BBF0E94F50BCC38D10780E06F
:1000E0000807A9F70E942A070C94F90B0C9400004A
:1000F000D898882309F46BC020FC66C084EC8BBBC5
:10010000F5E0FA95F1F70000DA982AE12A95F1F77F
:1001100000C020FC71C084E08BBB85E08A95F1F7BC
:100120000000DA98EFEEFAE03197F1F700C0000036
:10013000DA9AFB018081882321F1319620FC22C0CC
:10014000D89A982F907F95609BBB25E02A95F1F770
:100150000000DA989AE19A95F1F700C020E1829FB9
:10016000C001112485608BBB85E08A95F1F7000002
:10017000DA9895ED9A95F1F70000DA9A819181115C
:10018000DFCF0895D89A982F907F9D609BBB25E084
:100190002A95F1F70000DA989AE19A95F1F700C0F4
:1001A00020E1829FC00111248D608BBB85E08A9580
:1001B000F1F70000DA9895ED9A95F1F70000DA9AD8
:1001C00081918111DFCF08958CEC8BBB99CF20FCFE
:1001D00016C084E88BBB25E02A95F1F70000DA9879
:1001E0008AE18A95F1F700C020FC0CC084E08BBB4B
:1001F00095E09A95F1F794CF8CE08BBB8ECF8CE88D
:100200008BBBE9CF8CE08BBBF3CFF89410928500C9
:10021000109284001D9A10928700109286001A9AFC
:10022000D89820FE74C08CE08BBB45E04A95F1F76E
:100230000000DA988AE18A95F1F700C020FC64C0DA
:1002400084E18BBB95E09A95F1F70000DA98EFEE28
:10025000FAE03197F1F700C00000DA9A8FE39FE1EE
:100260000197F1F700C0000062E071E080E00E94B9
:10027000780063E171E081E00E9478003BE12DE7C6
:1002800033BF12BE21BF84E690E0EFE9FFE0319773
:10029000F1F700C0000001970097B9F713BE10BE38
:1002A000C498FFEF41EE84E0F15040408040E1F718
:1002B00000C0000033BF12BE21BF84E690E0EFE92A
:1002C000FFE03197F1F700C0000001970097B9F700
:1002D00013BE10BEC498FFEF45EA8EE0F1504040D7
:1002E0008040E1F700C00000689420F8DB9A9FEF9F
:1002F000E9E6F8E19150E040F040E1F700C000008D
:10030000E89420F8DB98BCCF8CE18BBB9BCF84E0DA
:100310008BBB8BCF1F920F920FB60F9211240BB68F
:100320000F928F93EF93FF93CF93DF9300D0CDB7CE
:10033000DEB780919B008A8380919C0089838A81AB
:100340008C71A9F4E091CA02F0E08981E553FD4F78
:1003500080838091CA028F5F8093CA028031D9F076
:100360008091C8028F5F8093C802803171F00F9036
:100370000F90DF91CF91FF91EF918F910F900BBE76
:100380000F900FBE0F901F9018951092C80281E039
:100390008093C702ECCF1092CA028091C8028F5F8F
:1003A0008093C802803119F7F0CF8BE183BF12BE72
:1003B0008AEF81BF84E690E0EFE9FFE03197F1F743
:1003C00000C0000001970097B9F713BE10BEC49893
:1003D0008CE183BF12BE8AEF81BF84E190E0EFE938
:1003E000FFE03197F1F700C0000001970097B9F7DF
:1003F00013BE10BEC4988BE183BF12BE83E581BFDC
:1004000082E390E0EFE9FFE03197F1F700C00000F0
:1004100001970097B9F713BE10BEC4988CE183BF53
:1004200012BE8AEF81BF84E190E0EFE9FFE03197EF
:10043000F1F700C0000001970097B9F713BE10BE96
:10044000C4988BE183BF12BE83E581BF84E690E050
:10045000EFE9FFE03197F1F700C000000197009746
:10046000B9F713BE10BEC4988CE183BF12BE8AEFE9
:1004700081BF84E190E0EFE9FFE03197F1F700C040
:10048000000001970097B9F713BE10BEC4988BE126
:1004900083BF12BE8DE781BF82E390E0EFE9FFE00A
:1004A0003197F1F700C0000001970097B9F713BE2C
:1004B00010BEC49808952FEF80E792E0215080404D
:1004C0009040E1F700C0000084E38BBB25E02A9553
:1004D000F1F70000DA988FE19EE40197F1F700C090
:1004E000000084E38BBB95E09A95F1F70000DA9861
:1004F0008FE99FE00197F1F700C0000084E38BBB18
:1005000095E09A95F1F70000DA988FE99FE001975E
:10051000F1F700C0000084E28BBB95E09A95F1F7FB
:100520000000DA98D89820FE9AC08CE28BBB25E0B8
:100530002A95F1F70000DA988AE18A95F1F700C070
:1005400020FC9CC084E88BBB95E09A95F1F70000F5
:10055000DA988FEE9AE00197F1F700C00000DA9A7E
:10056000D89820FE88C08CE18BBB95E09A95F1F776
:100570000000DA982AE12A95F1F700C020FC8AC031
:1005800084E08BBB85E08A95F1F70000DA988FEE66
:100590009AE00197F1F700C00000DA9AD89820FE9F
:1005A00067C08CE08BBB95E09A95F1F70000DA9874
:1005B0002AE12A95F1F700C020FC69C084E68BBBD4
:1005C00085E08A95F1F70000DA988FEE9AE00197BE
:1005D000F1F700C00000DA9AD89820FE46C08CE0FF
:1005E0008BBB95E09A95F1F70000DA982AE12A95FD
:1005F000F1F700C020FC48C084EC8BBB85E08A95F5
:10060000F1F70000DA988FEE9AE00197F1F700C059
:100610000000DA9AD89820FE25C08CE08BBB95E0CC
:100620009A95F1F70000DA982AE12A95F1F700C0CF
:1006300020FC27C084E18BBB85E08A95F1F70000A0
:10064000DA988FEE9AE00197F1F700C00000DA9A8D
:100650008FE39FE10197F1F700C00000089584E265
:100660008BBB65CF84E08BBBDACF84E08BBBB9CF8B
:1006700084E08BBB98CF84E18BBB77CF8CE88BBBBE
:1006800063CF8CE18BBBD8CF8CEC8BBBB7CF8CE628
:100690008BBB96CF8CE08BBB75CFFA0170966295C1
:1006A000660F660F607C61573FE0222D21704FC0BE
:1006B0008C608BBB45E04A95F1F70000DA988AE13F
:1006C0008A95F1F700C040E1649FC0011124211117
:1006D00049C084608BBB85E08A95F1F70000DA9809
:1006E0008FEE9AE00197F1F700C00000DA9A82914C
:1006F000D89A982F907F222391F19D609BBB95E023
:100700009A95F1F70000DA984AE14A95F1F700C0AE
:1007100040E1849FC0011124211127C085608BBB5B
:1007200085E08A95F1F70000DA9895ED9A95F1F752
:100730000000DA9A4FE788E391E041508040904012
:10074000E1F700C00000315061503F3F89F0D89878
:10075000862F807F2111ACCF84608BBBABCF95609F
:100760009BBBCDCF8C608BBBB6CF8D608BBBD8CF06
:1007700008951F920F920FB60F9211248F939F939B
:100780000E9B18C0B09B18C0F8948091BD02909148
:10079000BE0201979093BE028093BD028091BB027E
:1007A0008F5F8093BB029F918F910F900FBE0F9030
:1007B0001F901895B09BE8CFF8948091BD0290915E
:1007C000BE0201969093BE028093BD02E7CF1F92B6
:1007D0000F920FB60F9211248F939F930F9918C009
:1007E000B29918C0F8948091BF029091C00201960E
:1007F0009093C0028093BF028091BC028F5F809370
:10080000BC029F918F910F900FBE0F901F90189573
:10081000B299E8CFF8948091BF029091C0020197FD
:100820009093C0028093BF02E7CF1F920F920FB642
:100830000F9211242F938F939F938091DD029091BB
:10084000DE0201969093DE028093DD0289369105E7
:10085000E0F49091C5028917A9F19091C40298170C
:10086000C1F19091C3029817D9F19091C2029817E3
:10087000F1F19091C6029817E1F09F918F912F911D
:100880000F900FBE0F901F901895893E9340A8F3CC
:100890001092DE021092DD02979A969A959A949A97
:1008A000C39A9F918F912F910F900FBE0F901F9021
:1008B0001895C3989F918F912F910F900FBE0F9015
:1008C0001F90189597988091DD029091C40298131B
:1008D000C8CF96988091DD029091C3029813C5CF3E
:1008E00095988091DD029091C2029813C2CF94989E
:1008F0008091DD029091C6029813BFCFDACF1F928C
:100900000F920FB60F9211248F93809101018150A5
:1009100080930101882349F082E08FBD78948F9104
:100920000F900FBE0F901F90189582E080930101E9
:100930008AEA8FBD78948F910F900FBE0F901F9011
:1009400018951F920F920FB60F92112478940F9062
:100950000FBE0F901F9018951F920F920FB60F9217
:1009600011242F938F939F9378948091000181504D
:100970008093000181110BC08AE0809300019F9158
:100980008F912F910F900FBE0F901F90189584306C
:10099000A1F08930A1F78091BB029091DC02282F51
:1009A000291B2093B9028093DC029F918F912F9194
:1009B0000F900FBE0F901F9018958091BC029091E0
:1009C000DB02282F291B2093BA028093DB029F9120
:1009D0008F912F910F900FBE0F901F901895E89454
:1009E00020F8E89421F8E89422F81BBA8FEF8ABB2C
:1009F00095E098BB98EF97BB85BB90EF94BB12BA7C
:100A000091BB20EC23B99CE392B910926200109242
:100A10006100809365001092640010BE13BE12BE88
:100A200011BE8AEA8FBD82E18EBD1DBC1CBC87E869
:100A300093E197BD86BD8BE085BD14BC89EF83BD76
:100A400082EF80938B0081E180938A00109289006D
:100A50001092880081E08093810080E9809380007B
:100A600010928700109286001092850010928400E8
:100A70001092830088EC8093820010926A0080E5D7
:100A80008ABF29BF28BF84EA87BF82E080937D00A8
:100A900010929B0088E980939A0086E080939D00E5
:100AA0001092980087E68093990080E888B910BC7E
:100AB000F89487EB92E00E945B02689420F8DB9A3E
:100AC000D89820FE96C18CE88BBB25E02A95F1F7DB
:100AD0000000DA988AE18A95F1F700C020FC8CC109
:100AE00084E08BBB85E08A95F1F70000DA988FEE01
:100AF0009AE00197F1F700C00000DA9AE2EFF1E026
:100B000084E520FC42C0D89A982F907F95609BBBCB
:100B100095E09A95F1F70000DA982AE12A95F1F725
:100B200000C020E1829FC001112485608BBB85E05D
:100B30008A95F1F70000DA9895ED9A95F1F70000A3
:100B4000DA9A81918111DFCFD89820FE4FC18CECC9
:100B50008BBB25E02A95F1F70000DA988AE18A95A7
:100B6000F1F700C020FC73C184E08BBB95E09A953F
:100B7000F1F70000DA988FEE9AE00197F1F700C0E4
:100B80000000DA9A22FE23C0FFCFD89A982F907FD8
:100B90009D609BBB95E09A95F1F70000DA982AE1F9
:100BA0002A95F1F700C020E1829FC00111248D60D9
:100BB0008BBB85E08A95F1F70000DA9895ED9A9560
:100BC000F1F70000DA9A81918111DFCFBDCF6894EF
:100BD00022F880E287B995E39A95F1F70000369AFA
:100BE000349BFECF349AE89422F885B12EE5829F9B
:100BF000C001112463E170E00E94E10B9B01CB0175
:100C000064E670E00E94E10B605DD89A20FEEBC0C4
:100C10008DE38BBB85E08A95F1F70000DA989AE1C5
:100C20009A95F1F700C020FC0BC190E1699FB001DB
:100C3000112465606BBB85E08A95F1F70000DA98B6
:100C400095ED9A95F1F70000DA9AD89A20FEC5C082
:100C50008DE28BBB85E08A95F1F70000DA989AE186
:100C60009A95F1F700C020FCE8C085EE8BBB85E0CB
:100C70008A95F1F70000DA9895ED9A95F1F7000062
:100C8000DA9AC90164E670E00E94E10B6AE070E064
:100C90000E94E10B605DD89A20FE9CC08DE38BBB67
:100CA00085E08A95F1F70000DA989AE19A95F1F7D4
:100CB00000C020FCBBC090E1699FB00111246560B9
:100CC0006BBB85E08A95F1F70000DA9895ED9A956F
:100CD000F1F70000DA9AC9016AE070E00E94E10BC6
:100CE000805DD89A20FE7CC09DE39BBB25E02A95C1
:100CF000F1F70000DA989AE19A95F1F700C020E147
:100D0000829FC001112420FC8EC085608BBB95E0C2
:100D10009A95F1F70000DA9825ED2A95F1F7000091
:100D2000DA9AE3E0F2E080E220FC32C0D89A982F11
:100D3000907F95609BBB95E09A95F1F70000DA985B
:100D40002AE12A95F1F700C020E1829FC001112419
:100D500085608BBB85E08A95F1F70000DA9895ED08
:100D60009A95F1F70000DA9A81918111DFCF88EB33
:100D700092E00E94D5012FEF83EC99E02150804052
:100D80009040E1F700C0000022FE39C07894089539
:100D9000D89A982F907F9D609BBB25E02A95F1F70C
:100DA0000000DA989AE19A95F1F700C020E1829F5D
:100DB000C00111248D608BBB85E08A95F1F700009E
:100DC000DA9895ED9A95F1F70000DA9A8191811100
:100DD000DFCFCDCF85E38BBB63CF85E28BBB3ACF33
:100DE00095E39BBB83CF85E38BBB14CF84EC8BBB9C
:100DF000B0CE84E88BBB69CE8CE08BBB73CE68949D
:100E000022F880E287B925E32A95F1F70000369AA7
:100E1000349BFECF349AE89422F885B1843608F0EA
:100E2000B5CF0E9405018D608BBB71CF80E1689FBB
:100E3000B00111246D606BBB44CF8DEE8BBB17CF1F
:100E400080E1689FB00111246D606BBBF4CE8CE033
:100E50008BBB8CCE0E94EF04D89820FE0DC28CE094
:100E60008BBB25E02A95F1F70000DA986AE16A95D4
:100E7000F1F700C020FCFDC184E18BBB85E08A95C1
:100E8000F1F70000DA98EFEEFAE03197F1F700C0E1
:100E90000000DA9A8FE39FE10197F1F700C00000AC
:100EA00049E152E060E087EB92E00E944D03D89860
:100EB00020FEDCC18CEC8BBB95E09A95F1F700002D
:100EC000DA98BAE1BA95F1F700C020FCCCC184E011
:100ED0008BBBE5E0EA95F1F70000DA988FEE9AE037
:100EE0000197F1F700C00000DA9AE8E0F2E020FC98
:100EF0008DC18191D89A982F907F95609BBB95E08A
:100F00009A95F1F70000DA98BAE1BA95F1F700C0C6
:100F100020E1829FC001112485608BBB65E06A954A
:100F2000F1F70000DA9885ED8A95F1F70000DA9A7A
:100F30009FE7B8E321E09150B0402040E1F700C0C6
:100F4000000062E0E831F607A1F688EB92E00E942B
:100F5000D5011EE430E6D32E40E659E009E26AE10D
:100F6000462E64E0562E77E1F72EE8E56E2EE2E09D
:100F70007E2EC22DC170D4E0FCE0EF2EA4ECAA2E90
:100F8000BCEC9B2E84E8C82E9CE8B92E2EE937E0F5
:100F90008CED95E09B9BA0C09A9BF9C1999BD5C213
:100FA0009899F8CF1093C5021093C602D092C4024C
:100FB0005BBD4ABD0093C30259BC48BCF092C2025B
:100FC0007092790060927800D898CC2309F4B5C368
:100FD000BBBAB5E0BA95F1F70000DA98EAE1EA9514
:100FE000F1F700C0C111ADC3DBBBF5E0FA95F1F735
:100FF0000000DA98EFEEFAE03197F1F700C0000058
:10100000DA9AE1E9F2E0A0E5C11139C1D89ABA2F24
:10101000B07FB560BBBB65E06A95F1F70000DA9878
:10102000BAE1BA95F1F700C060E1A69FD0011124A2
:10103000A560ABBBB5E0BA95F1F70000DA9865EDB5
:101040006A95F1F70000DA9AA191A111DFCFD89843
:10105000CC2309F470C39BBAB5E0BA95F1F7000050
:10106000DA98EAE1EA95F1F700C0C11168C3DBBB89
:10107000F5E0FA95F1F70000DA98EFEEFAE0319733
:10108000F1F700C00000DA9AE2EAF2E0A1E3C11150
:1010900018C1D89ABA2FB07FB560BBBB65E06A951E
:1010A000F1F70000DA98BAE1BA95F1F700C060E113
:1010B000A69FD0011124A560ABBBB5E0BA95F1F7AE
:1010C0000000DA9865ED6A95F1F70000DA9AA191CF
:1010D000A111DFCF9B9960CFF092C502F092C602BA
:1010E0000093C4025BBC4ABCEBE3E093C30299BD2E
:1010F00088BD1093C2023093790020937800D8986D
:10110000CC2309F400C3BBBAB5E0BA95F1F70000EF
:10111000DA98EAE1EA95F1F700C0C111F8C2DBBB49
:10112000B5E0BA95F1F70000DA98EFEEFAE0319702
:10113000F1F700C00000DA9AEBE2F2E0A0E5C1119D
:10114000E2C0D89ABA2FB07FB560BBBB65E06A95A4
:10115000F1F70000DA98BAE1BA95F1F700C060E162
:10116000A69FD0011124A560ABBBB5E0BA95F1F7FD
:101170000000DA9865ED6A95F1F70000DA9AA1911E
:10118000A111DFCFD898CC2309F4BFC29BBAB5E038
:10119000BA95F1F70000DA98EAE1EA95F1F700C0B4
:1011A000C111B7C2DBBBF5E0FA95F1F70000DA98A0
:1011B000EFEEFAE03197F1F700C00000DA9AECE3C5
:1011C000F2E0A0E3C111C1C0D89ABA2FB07FB560D8
:1011D000BBBB65E06A95F1F70000DA98BAE1BA9511
:1011E000F1F700C060E1A69FD0011124A560ABBB60
:1011F000B5E0BA95F1F70000DA9865ED6A95F1F778
:101200000000DA9AA191A111DFCFC4CE8191D89AC2
:10121000982F907F9D609BBB25E02A95F1F70000F9
:10122000DA986AE16A95F1F700C0B0E18B9FC001DE
:1012300011248D608BBB25E02A95F1F70000DA9828
:1012400065ED6A95F1F70000DA9A8FE798E3B1E06F
:1012500081509040B040E1F700C0000022E0E8314A
:10126000F207A1F672CE8CE08BBB33CE84EC8BBB45
:1012700023CE8CE18BBB02CE84E08BBBF2CDD89A1F
:10128000BA2FB07FBD60BBBB65E06A95F1F7000087
:10129000DA98BAE1BA95F1F700C060E1A69FD001F3
:1012A0001124AD60ABBBB5E0BA95F1F70000DA9858
:1012B00065ED6A95F1F70000DA9AA191A111DFCFEF
:1012C000C6CED89ABA2FB07FBD60BBBBB5E0BA9589
:1012D000F1F70000DA986AE16A95F1F700C060E181
:1012E000A69FD0011124AD60ABBBB5E0BA95F1F774
:1012F0000000DA9865ED6A95F1F70000DA9AA1919D
:10130000A111DFCF47CED89ABA2FB07FBD60BBBB4B
:10131000B5E0BA95F1F70000DA986AE16A95F1F75D
:1013200000C060E1A69FD0011124AD60ABBBB5E069
:10133000BA95F1F70000DA9865ED6A95F1F70000CB
:10134000DA9AA191A111DFCF1DCFD89ABA2FB07F21
:10135000BD60BBBBB5E0BA95F1F70000DA986AE171
:101360006A95F1F700C060E1A69FD0011124AD603D
:10137000ABBBB5E0BA95F1F70000DA9865ED6A9578
:10138000F1F70000DA9AA191A111DFCF03CE00930B
:10139000C5020093C602EBE3E093C4029BBD8ABD85
:1013A0001093C30239BD28BDD092C2025093790078
:1013B00040937800D898CC2309F4ADC1BBBAB5E00E
:1013C000BA95F1F70000DA98EAE1EA95F1F700C082
:1013D000C111A5C1DBBBF5E0FA95F1F70000DA9881
:1013E000EFEEFAE03197F1F700C00000DA9AEDE491
:1013F000F2E0A0E5C11165C0D89ABA2FB07FB56000
:10140000BBBB65E06A95F1F70000DA98BAE1BA95DE
:10141000F1F700C060E1A69FD0011124A560ABBB2D
:10142000B5E0BA95F1F70000DA9865ED6A95F1F745
:101430000000DA9AA191A111DFCFD898CC2309F44A
:101440006CC19BBAB5E0BA95F1F70000DA98EAE111
:10145000EA95F1F700C0C11164C1DBBBF5E0FA9574
:10146000F1F70000DA98EFEEFAE03197F1F700C0FB
:101470000000DA9AEEE5F2E0A4E3C11144C0D89A84
:10148000BA2FB07FB560BBBB65E06A95F1F700008D
:10149000DA98BAE1BA95F1F700C060E1A69FD001F1
:1014A0001124A560ABBBB5E0BA95F1F70000DA985E
:1014B00065ED6A95F1F70000DA9AA191A111DFCFED
:1014C00069CDD89ABA2FB07FBD60BBBBB5E0BA95E5
:1014D000F1F70000DA986AE16A95F1F700C060E17F
:1014E000A69FD0011124AD60ABBBB5E0BA95F1F772
:1014F0000000DA9865ED6A95F1F70000DA9AA1919B
:10150000A111DFCF9ACFD89ABA2FB07FBD60BBBBF5
:10151000B5E0BA95F1F70000DA986AE16A95F1F75B
:1015200000C060E1A69FD0011124AD60ABBBB5E067
:10153000BA95F1F70000DA9865ED6A95F1F70000C9
:10154000DA9AA191A111DFCF25CDEBE3E093C5029B
:10155000E093C6021093C4023BBD2ABDD092C302E1
:1015600059BD48BDE093C202909379008093780002
:10157000D898CC2309F4D9C0BBBAB5E0BA95F1F735
:101580000000DA98EAE1EA95F1F700C0C111D1C094
:10159000DBBBF5E0FA95F1F70000DA98EFEEFAE040
:1015A0003197F1F700C00000DA9AEFE6F2E0A0E52B
:1015B000C11165C0D89ABA2FB07FB560BBBB65E0DA
:1015C0006A95F1F70000DA98BAE1BA95F1F700C030
:1015D00060E1A69FD0011124A560ABBBB5E0BA9530
:1015E000F1F70000DA9865ED6A95F1F70000DA9AF4
:1015F000A191A111DFCFD898CC2309F494C09BBA54
:10160000B5E0BA95F1F70000DA98EAE1EA95F1F76A
:1016100000C0C1118CC0DBBBF5E0FA95F1F700000A
:10162000DA98EFEEFAE03197F1F700C00000DA9AAD
:10163000E0E8F2E0A9E3C11144C0D89ABA2FB07F24
:10164000B560BBBB65E06A95F1F70000DA98BAE1D6
:10165000BA95F1F700C060E1A69FD0011124A56002
:10166000ABBBB5E0BA95F1F70000DA9865ED6A9585
:10167000F1F70000DA9AA191A111DFCF8BCCD89AB3
:10168000BA2FB07FBD60BBBBB5E0BA95F1F70000E3
:10169000DA986AE16A95F1F700C060E1A69FD0018F
:1016A0001124AD60ABBBB5E0BA95F1F70000DA9854
:1016B00065ED6A95F1F70000DA9AA191A111DFCFEB
:1016C0009ACFD89ABA2FB07FBD60BBBBB5E0BA95B0
:1016D000F1F70000DA986AE16A95F1F700C060E17D
:1016E000A69FD0011124AD60ABBBB5E0BA95F1F770
:1016F0000000DA9865ED6A95F1F70000DA9AA19199
:10170000A111DFCF47CCCBBAFFCCABBA40CDEBBAFF
:1017100007CDEBBA48CDCBBA52CEABBA93CEEBBA2B
:101720005ACEEBBA9BCEABBA6BCFCBBA26CFEBBAC5
:1017300073CFEBBA2ECFABBA8FCCCBBA4ACCEBBAC5
:1017400097CCEBBA52CC8BE38093C5028093C40252
:101750008093C3028093C2028093C6028CED95E011
:101760009BBD8ABD99BD88BD909379008093780018
:1017700010928500109284001092870010928600CB
:101780001092B9021092BA021092BB021092BC02DF
:1017900080E287B984E886B90895AA1BBB1B51E192
:1017A00007C0AA1FBB1FA617B70710F0A61BB70BD1
:1017B000881F991F5A95A9F780959095BC01CD0176
:1017C000089597FB072E16F4009407D077FD09D0F3
:1017D0000E94CD0B07FC05D03EF4909581959F4F5C
:1017E0000895709561957F4F08950790F691E02DCB
:0617F0000994F894FFCFFC
:1017F6000A0256732E426174657265203C20362EAD
:1018060035560049736920556C616E6720426174D4
:10181600657265004B616C6962726173692053651C
:101826006E736F720053656C65736169203E3E3E50
:101836003E3E3E3E3E00446968656E74696B616E6D
:10184600203E3E3E3E3E0054656B616E20546F6DF9
:10185600626F6C20313C3C00312E5761726E612004
:101866004D65726168203E3E00322E5761726E6190
:101876002048696A6175203E3E00332E5761726EBC
:10188600612042697275203E3E3E00342E576172D9
:101896006E6120486974616D203E3E004D6572613F
:1018A600682D48696A61752D4269727500322E5736
:1018B60061726E61204269727520203E3E00332EB1
:1018C6005761726E6120486974616D203E3E3E002C
:1018D600204D657261682064616E204269727520D0
:1018E60000546567616E67616E204261746572655A
:1018F6003A0020566F6C740041747572506F7369AC
:10190600736920536572766F0054656B616E205063
:10191600757368427574746F6E00506F736973697E
:1019260020536572766F202331200030202020342A
:10193600352020203930202031333500506F73692F
:10194600736920536572766F202332200034352068
:101956002020393020203133352031383000506F87
:101966007369736920536572766F202333200039BB
:1019760030202031333520203138302020393000D6
:10198600506F7369736920536572766F2023342014
:1019960000313335202031383020203435202020C6
:0219A60030000F
:00000001FF
