:100000000C9447000C9476000C9476000C947600C7
:100010000C9476000C9476000C9476000C945E039D
:100020000C9485030C94F4030C9476000C94CE038A
:100030000C9476000C9476000C94E9030C947600F2
:100040000C9476000C9476000C9476000C94760058
:100050000C9476000C9476000C9476000C94760048
:100060000C9476000C9476000C9476000C94760038
:100070000C94AC030C9476000C9486000C947600DF
:100080000C9476000C9476000C947600750511247F
:100090001FBECFEFD0E1DEBFCDBF12E0A0E0B1E0E8
:1000A000E4EAFBE000E00BBF02C007900D92AC3425
:1000B000B107D9F722E0ACE4B2E001C01D92A63747
:1000C000B207E1F710E0CEE8D0E000E006C02297EA
:1000D0000109FE010BBF0E94CC05CC38D10780E09E
:1000E0000807A9F70E94F1040C94D0050C940000B5
:1000F000689420F8DB9A0895EFE9FFE03197F1F773
:1001000000C0000001970097B9F708951F920F9261
:100110000FB60F9211240BB60F928F93EF93FF93AC
:10012000CF93DF9300D0CDB7DEB780919B008A8359
:1001300080919C0089838A818C71E1F4E0915F0257
:10014000F0E08981E05AFD4F808380915F028F5FEC
:1001500080935F02803111F410925F0280915D0202
:100160008F5F80935D02803129F410925D0281E0FF
:1001700080935C020F900F90DF91CF91FF91EF91F0
:100180008F910F900BBE0F900FBE0F901F90189580
:100190008CED95E09BBD8ABD99BD88BD909379009B
:1001A000809378000895FC011092850010928400DD
:1001B00010928700109286001082118212821382A0
:1001C000089577FF09C07195619571097093850055
:1001D000609384001D9805C070938500609384002F
:1001E0001D9A57FF09C051954195510950938700B9
:1001F000409386001A980895509387004093860094
:100200001A9A089513BE10BEC4980895AB014D57B5
:10021000510944395642C0F5683E83E0780758F0EA
:100220008BE183BF12BE9B0140E050E060E970EDBE
:1002300083E090E01CC0643F21E0720758F08CE13D
:1002400083BF12BE9B0140E050E068E478EE81E09D
:1002500090E00DC06A3F710570F08DE183BF12BE62
:100260009B0140E050E06CEA77E081E090E00E9482
:10027000AA0521BF08958EE183BF12BE86ED93E8E3
:100280000E94820561BF08950C9402010F931F9391
:10029000CF93DF93EC018A010E940601C8010E94FE
:1002A0007C00CE01DF91CF911F910F910C94020140
:1002B000CF93DF93EC0148EC50E068EE73E00E94CE
:1002C000460142E350E064EF71E0CE010E94460136
:1002D00044E650E068EB7BE0CE010E94460142E339
:1002E00050E064EF71E0CE010E94460148EC50E01E
:1002F00068EB7BE0CE010E94460142E350E064EFF0
:1003000071E0CE010E94460144E650E060ED77E0E6
:10031000CE01DF91CF910C944601607F64606BBB8E
:1003200085E08A95F1F70000DA980895D898862F2D
:10033000807F20FE02C08C6001C084608BBB85E0A2
:100340008A95F1F70000DA989AE19A95F1F700C0E2
:1003500070E0E4E0660F771FEA95E1F720FE02C047
:100360006C6001C064606BBB85E08A95F1F70000AA
:10037000DA988FEE9AE00197F1F700C00000DA9A60
:100380000895D89A862F807F20FE02C08D6001C01C
:1003900085608BBB85E08A95F1F70000DA988AE1E9
:1003A0008A95F1F700C070E0F4E0660F771FFA95C8
:1003B000E1F720FE02C06D6001C065606BBB85E0A7
:1003C0008A95F1F70000DA9885ED8A95F1F700003B
:1003D000DA9A0895CF93DF93EC012FEF80E792E054
:1003E000215080409040E1F700C0000060E3CE0162
:1003F0000E948D018FE19EE40197F1F700C000009B
:1004000060E3CE010E948D018FE99FE00197F1F733
:1004100000C0000060E3CE010E948D018FE99FE0E3
:100420000197F1F700C0000060E2CE010E948D014B
:1004300068E2CE010E94960160E1CE010E94960121
:1004400066E0CE010E9496016CE0CE010E9496010A
:1004500061E0CE010E9496018FE39FE10197F1F7E1
:1004600000C00000DF91CF910895411102C0605893
:1004700001C060540C9496010F931F93CF93DF93A8
:100480008C01EB016991662321F0C8010E94C10132
:10049000F9CFDF91CF911F910F9108950F931F9383
:1004A000CF93DF93EC018A01462F60E00E94350272
:1004B000B801CE01DF91CF911F910F910C943C02B6
:1004C00061E00E9496018FE39FE10197F1F700C080
:1004D00000000895CF92DF92FF920F931F93CF9366
:1004E000DF931F92CDB7DEB78C01F42E462F60E06C
:1004F00059830E943502CF2C5981D52EF12CF6015B
:1005000061916F01C8010E94C101FFE728E381E00A
:10051000F15020408040E1F700C00000F39490E1EA
:10052000F912EDCF0F90DF91CF911F910F91FF90B6
:10053000DF90CF900895CF92DF92EF92FF920F93CA
:100540001F93CF93DF93EC017B01CB0164E670E056
:100550000E9482056C01605DCE010E94C1010AE02B
:1005600010E0C601B8010E948205605DCE010E94C4
:10057000C101C701B8010E94820560E3680FCE0186
:10058000DF91CF911F910F91FF90EF90DF90CF906F
:100590000C94C1010F931F93CF93DF93EC01CB0118
:1005A00068EE73E00E9482058C01605DCE010E94BE
:1005B000C101B801CE01DF91CF911F910F910C9431
:1005C0009B0261110C947800E89420F8DB98089560
:1005D000689422F8606267B985E38A95F1F70000B4
:1005E000369A349BFECF349AE89422F885B1089568
:1005F00022FCFFCF60E00E94E8022EE5829FC0014E
:10060000112463E170E00E949605CB01089522FC5D
:1006100054C060E00E94E802833808F04EC0F894AD
:1006200040E050E060E070E083E592E00E94E1008D
:1006300081E592E00E94600242E051E060E081E5E5
:1006400092E00E944E0243E151E061E081E592E0D8
:100650000E944E0244E650E060ED77E082E592E0D1
:100660000E9446012FEF81EE94E02150804090409F
:10067000E1F700C0000044E650E060ED77E082E57D
:1006800092E00E9446012FEF85EA9EE021508040D3
:100690009040E1F700C000000E9478002FEF89E64B
:1006A00098E1215080409040E1F700C0000060E0F8
:1006B00081E592E00E94E102CDCF08951F920F9252
:1006C0000FB60F9211248F939F93809157029091B0
:1006D00058020E9B03C0B09B03C005C0B09B03C073
:1006E000F894019602C0F894019790935802809371
:1006F0005702809155028F5F809355029F918F9191
:100700000F900FBE0F901F9018951F920F920FB66B
:100710000F9211248F939F938091590290915A02C6
:100720000F9B03C0B29B03C005C0B29B03C0F894EB
:10073000019702C0F894019690935A02809359024F
:10074000809156028F5F809356029F918F910F90F8
:100750000FBE0F901F9018951F920F920FB60F9219
:1007600011242F938F939F93809172029091730223
:100770000196893E23E0920728F4909373028093B8
:10078000720204C010927302109272029F918F91B4
:100790002F910F900FBE0F901F9018951F920F92E0
:1007A0000FB60F9211248F93809101018150809395
:1007B0000101811105C085E0809301018AEA01C031
:1007C00082E08FBD78948F910F900FBE0F901F9095
:1007D00018951F920F920FB60F92112478940F90D4
:1007E0000FBE0F901F9018951F920F920FB60F9289
:1007F00011242F938F939F937894809100018150BF
:1008000009F48AE08093000180910001843069F04E
:100810008930A9F48091550290917102282F291BEB
:1008200020935302809371020AC0809156029091E6
:100830007002282F291B20935402809370029F91ED
:100840008F912F910F900FBE0F901F901895EF92E0
:10085000FF920F931F93CF93DF93E89420F8E894CF
:1008600021F8E89422F81BBA8FEF8ABB95E098BB79
:1008700098EF97BB85BB90EF94BB12BA91BB20EC6D
:1008800023B99CE392B910926200109261008093A8
:1008900065001092640010BE13BE12BE11BE8AEA3B
:1008A0008FBD82E18EBD1DBC1CBC80EA9FE097BD60
:1008B00086BD8BE085BD14BC8AEF83BD82EF80933B
:1008C0008B0081E180938A00109289001092880049
:1008D00081E08093810080E98093800010928700FE
:1008E000109286001092850010928400109283006E
:1008F00088EC8093820010926A0080E58ABF29BF4D
:1009000028BF84EA87BF82E080937D0010929B001D
:1009100088E980939A0086E080939D001092980069
:1009200087E68093990080E888B910BCF89481E547
:1009300092E00E94EA010E94780041EF51E060E0FD
:1009400081E592E00E944E0260EC81E592E00E9417
:10095000960180E592E00E94F8028C0164E670E066
:100960000E9496057C01605D81E592E00E94C101D4
:100970006EE281E592E00E94C101CAE0D0E0C701C9
:10098000BE010E949605605D81E592E00E94C10172
:10099000C801BE010E94960560E3680F81E592E000
:1009A0000E94C10162E072E081E592E00E943C0297
:1009B00082E592E00E9458012FEF83EC99E02150EC
:1009C00080409040E1F700C0000080E592E00E9486
:1009D00007037894DF91CF911F910F91FF90EF90D3
:1009E00008950E94270481E592E00E94600248E099
:1009F00052E060E081E592E00E946A0249E152E043
:100A000061E081E592E00E946A0282E592E00E9444
:100A100058018091630083FD2FC04AE252E060E0FC
:100A200081E592E00E944E0260EC81E592E00E9436
:100A3000960160E080E592E00E94E802682F70E095
:100A400081E592E00E94CA0261E080E592E00E94A6
:100A5000E802682F70E081E592E00E94CA0262E03D
:100A600080E592E00E94E802682F70E081E592E064
:100A70000E94CA0263E02EC04BE352E060E081E5D1
:100A800092E00E944E0260EC81E592E00E949601A5
:100A900064E080E592E00E94E802682F70E081E562
:100AA00092E00E94CA0265E080E592E00E94E802BE
:100AB000682F70E081E592E00E94CA0266E080E55E
:100AC00092E00E94E802682F70E081E592E00E94C7
:100AD000CA0267E080E592E00E94E802682F70E0B9
:100AE00081E592E00E94CA0294CF8BE592E00E94D9
:100AF000C80083E592E00E94D30080E287B984E8D1
:100B000086B90895AA1BBB1B51E107C0AA1FBB1FD2
:100B1000A617B70710F0A61BB70B881F991F5A9589
:100B2000A9F780959095BC01CD01089597FB072EFC
:100B300016F4009407D077FD09D00E94820507FCC7
:100B400005D03EF4909581959F4F089570956195DD
:100B50007F4F0895A1E21A2EAA1BBB1BFD010DC0F9
:100B6000AA1FBB1FEE1FFF1FA217B307E407F5075D
:100B700020F0A21BB30BE40BF50B661F771F881F39
:100B8000991F1A9469F760957095809590959B01CF
:100B9000AC01BD01CF0108950790F691E02D0994B5
:040BA000F894FFCFF7
:100BA4000A0556732E426174657265203C20362E08
:100BB40035560049736920556C616E672042617433
:100BC400657265004B616C6962726173692053657B
:100BD4006E736F720053656C65736169203E3E3EAF
:100BE4003E3E3E3E3E00446968656E74696B616ECC
:100BF400203E3E3E3E3E004D657261682D48696A66
:100C040061752D4269727500312E5761726E6120D3
:100C14004D65726168203E3E0054656B616E2054E0
:100C24006F6D626F6C20313C3C00322E5761726EE6
:100C3400612048696A6175203E3E00332E57617217
:100C44006E612042697275203E3E3E00342E57612B
:100C5400726E6120486974616D203E3E00204D65CE
:100C64007261682064616E20426972752000322EC0
:100C74005761726E61204269727520203E3E0033D6
:100C84002E5761726E6120486974616D203E3E3E4C
:100C940000546567616E67616E20426174657265B8
:100CA4003A0020566F6C74003E3E2050726F67729B
:100CB400616D20414443203E003C3C204B616E6109
:100CC4006C203020732F642038004368303A436826
:100CD400313A4368323A4368333A004368343A431A
:0C0CE40068353A4368363A4368373A00F6
:00000001FF
