:100000000C9475040C949F040C949F040C949F040E
:100010000C949F040C949F040C949F040C949113D3
:100020000C94BF130C94B8140C949F040C941614E5
:100030000C949F040C949F040C9438140C949F040B
:100040000C949F040C949F040C949F040C949F04A4
:100050000C949F040C949F040C949F040C949F0494
:100060000C949F040C949F040C949F040C949F0484
:100070000C94ED130C949F040C94DB0A0C949F04D5
:100080000C949F040C949F040C949F04084AD73B43
:100090003BCE016E84BCBFFDC12F3D6C74319ABD57
:1000A00056833DDA3D00C77F11BED9E4BB4C3E917B
:1000B0006BAAAABE000000803F0001B202FFFF0150
:1000C00090040923A135016A0206000160080000BE
:1000D0000000000000000060044000000001620217
:1000E000000000600400400000037B034CCD6C0363
:1000F000AB0336567600680402CB47A20218040010
:10010000058BC1010C0400000000037F060CC92C04
:10011000979797038903264666006C02200001EC3E
:100120000400004000037F060CC92C979797040237
:10013000030D355D040904872D353D00A301000042
:10014000000001078601FE074105F120283038072D
:1001500046019A074704F12830380216020000FBD6
:1001600000003E000B00360001000200030000000A
:10017000650054FFEF0000FA80000B1282000100BE
:10018000020000000000000000000000000000006D
:10019000280000FFFF4581FFFFFA72000000000009
:1001A0000003E80000000100017FFFFFFE80010066
:1001B0001B00000000000000000000000000000024
:1001C0003E03304000000002CAE3093E80000020E8
:1001D000000000000000004000000060000000413E
:1001E000FF000000000B2A0000165500002182FDD0
:1001F000872650FD800000001F00000005800000E1
:1002000000000000010000000200000003000040A8
:100210000000000000046F0002653200005EC04074
:10022000000000000000000000000000000000FBD3
:100230008C6F5DFD5D08D9007C733B006C12CC3285
:1002400000139D3200D0D632000800400001F4FFB8
:10025000E68079020000000000D0D600002710FBE5
:10026000000000400000000000000000000000004E
:10027000000001000000000000010001000000007B
:1002800000FA36FFBC308E0005FBF0FFD95BC8FFDB
:10029000D09ABE000010A9FFF41EB200CEBBF7003A
:1002A00000000100000004000200020200000CFF38
:1002B000C280000001800000CF80004000000000EC
:1002C0000000010000000000000600000000140013
:1002D000000000000000000000000000000000001E
:1002E000000000000000000000000000000000000E
:1002F00000000000000000000000000000000000FE
:10030000000000033F68B6793528BCC67ED16C80FA
:10031000000000400000000000B26A000000000081
:100320000000000000000000003FF000000030006E
:1003300000000000000000000000000000000000BD
:1003400000000000000000000000000000000000AD
:1003500000254D002F706D000005AE000C02D0008E
:1003600000000000650054FFEF00000000000000E6
:100370000001000044000000000C0000000100002B
:100380000000000065000000540000FFEF000000C6
:10039000000000000000000000000000000000401D
:1003A000000000000000000000000000000000400D
:1003B000000000000000000000000000000000003D
:1003C000000001000000020000000000000000002A
:1003D000000000000000000000000000000000001D
:1003E000000000000000000000000000000000000D
:1003F0001B000000000000000000000000000000E2
:1004000000000000000000000000000000000000EC
:10041000000000000000000000000040000000009C
:100420001B000000000000000000000000000000B1
:1004300000000000000000000000000000000000BC
:1004400000000000000000000000000000000000AC
:10045000000000000000000000000000000000D8C4
:10046000DCBAA2F1DEB2B8B4A88191F74A907F91CC
:100470006AF3F9DBA8F9B0BAA080F2CE81F3C2F139
:10048000C1F2C3F3CCA2B280F1C6D880BAA7DFDF35
:10049000DFF2A7C3CBC5B6F087A2942448703C9581
:1004A000406834589B78A2F183922D557DD8B1B421
:1004B000B8A1D09180F270F370F27C80A8F101B005
:1004C0009887D943D886C988BAA1F20EB89780F127
:1004D000A9DFDFDFAADFDFDFF2AAC5CDC7A90CC91C
:1004E0002C97979797F1A989264666B0B4BA80AC45
:1004F000DEF2CAF1B28C02A9B69800890E161EB8B7
:10050000A9B4992C547CB08AA896365676F1B9AF26
:10051000B4B083C0B8A89711B18F98B9AFF02408D0
:1005200044106418F1A329557DAF83B593AFF00053
:100530002850F1A3869F61A6DADEDFD9FAA386965A
:10054000DB31A6D9F8DFBAA68FC2C5C7B28CC1B855
:10055000A2DFDFDFA3DFDFDFD8D8F1B8A8B286B42F
:10056000980D355DB8AA98B0872D353DB2B6BAAFB3
:100570008C96198F9FA70E161EB49AB8AA872C5472
:100580007CB9A3DEDFDFA3B180F2C4CDC9F1B8A985
:10059000B499830D355D89B9A32D557DB593A30E0F
:1005A000161EA92C547CB8B4B0F19783A81184A569
:1005B0000998A383F0DA240844106418D8F1A52917
:1005C000557DA58595021A2E3A565A4048F9F3A34F
:1005D000D9F8F098832408441064189782A8F11180
:1005E000F098A2240844106418DAF3DED883A594A6
:1005F00001D9A302F1A2C3C5C7D8F18492A24DDAF2
:100600002AD84869D92AD86855DA32D85071D932EF
:10061000D8705DDA3AD85879D93AD87893A34DDAB8
:100620002AD84869D92AD86855DA32D85071D932CF
:10063000D8705DDA3AD85879D93AD878A88A9AF039
:100640002850789EF38818F19F1D98A8D908D8C81B
:100650009F129EF315A8DA1210D8F1AFC89787340D
:10066000B5B994A421F3D922D8F22DF3D92AD8F21E
:1006700035F3D932D881A4606061D961D86C6869DA
:10068000D969D8747071D971D8B1A384193D5DA3AB
:10069000831A3E5E931030811011B8B0AF8F94F280
:1006A000DA3ED8B49AA88729DAF8D8879A35DAF8E2
:1006B000D8879A3DDAF8D8B1B9A49885022E56A504
:1006C00081000C14A397B08AF12DD928D84DD948B0
:1006D000D86DD968D8B1840DDA0ED8A32983DA2C65
:1006E0000ED8A3844983DA2C4C0ED8B8B0A88A9AC5
:1006F000F520AADADFD8A840AAD0DADED8A860AA06
:10070000DAD0DFD8F19786A8319B069907AB9728F6
:10071000889BF00C201440B8B0B4A88C9CF004283E
:1007200051791D301438B282ABD0982C5050787863
:100730009BF11AB0F08A9CA82951798B2951798AAA
:100740002470598B2058718A4469388B3940688AE3
:100750006448318B304960A588200971584468117C
:100760003964493019F1AC002C547CF08CA8042871
:100770005078F1889726A85998AC8C02264666F0E6
:10078000899CA8295179247059446938644831A951
:100790008809205970AB11384069A8193148608C1C
:1007A000A83C415C207C00F187981986A86E767E73
:1007B000A999882D557D9EB9A38A228A6E8A568A68
:1007C0005E9FB183062646660E2E4E6E9DB8AD0026
:1007D0002C547CF2B18CB499B9A32D557D8191AC88
:1007E00038AD3AB58391AC2DD928D84DD948D86DBC
:1007F000D968D88C9DAE29D904AED851D904AED8C9
:1008000079D904D881F39DAD008DAE1981ADD901A0
:10081000D8F2AEDA26D88E912983A7D9ADADADAD89
:10082000F32AD8D8F1B0AC89913E5E76F3AC2E2E87
:10083000F1B18C5A9CAC2C2828289CAC3018A89874
:100840008128343C9724A728343C9C24F2B089ACFE
:10085000912C4C6C8A9B2DD9D8D851D9D8D879D91C
:10086000D8D8F19E88A331DAD8D8912DD928D84D7F
:10087000D948D86DD968D8B18393353D8025DAD869
:10088000D88569DAD8D8B49381A328343CF3AB8BEC
:10089000F8A391B609B4D9ABDEFAB0879CB9A3DD51
:1008A000F1A3A3A3A395F1A3A3A39DF1A3A3A3A342
:1008B000F2A3B49080F2A3A3A3A3A3A3A3A3A3A38F
:1008C000B2A3A3A3A3A3A3B087B599F1A3A3A398AD
:1008D000F1A3A3A3A397A3A3A3A3F39BA3A3DCB90F
:1008E000A7F1262626D8D8FF7F1911241FBECFEFE7
:1008F000D0E1DEBFCDBF12E0A0E0B1E0ECE0FEE36E
:1009000000E00BBF02C007900D92A038B107D9F7E5
:1009100023E0A0E8B2E001C01D92A730B207E1F7E2
:1009200014E0C5E7D4E004C02197FE010E94FC1941
:10093000C437D107C9F70E9460160C94041F0C94A9
:100940000000D89A982F907F20FE1EC09D609BBB10
:1009500025E02A95F1F70000DA989AE19A95F1F7E7
:1009600000C020E1829FC001112420FC10C08560DE
:100970008BBB85E08A95F1F70000DA9895ED9A95A2
:10098000F1F70000DA9A089595609BBBE1CF8D6086
:100990008BBBEFCFD898982F907F20FE20C09C6013
:1009A0009BBB25E02A95F1F70000DA989AE19A9529
:1009B000F1F700C020E1829FC001112420FC12C089
:1009C00084608BBB85E08A95F1F70000DA988FEEA2
:1009D0009AE00197F1F700C00000DA9A0895946058
:1009E0009BBBDFCF8C608BBBEDCFF8941092850062
:1009F000109284001D9A10928700109286001A9A15
:100A000081E00E94CA048FE39FE10197F1F700C0E3
:100A1000000080E80E94CA04C9E0D1E086E50E9497
:100A2000A10489918111FBCF80EC0E94CA04CAE124
:100A3000D1E089E40E94A10489918111FBCF3BE1BF
:100A40002DE733BF12BE21BF84E690E0EFE9FFE05F
:100A50003197F1F700C000000197C1F713BE10BE37
:100A6000C498FFEF41EE84E0F15040408040E1F750
:100A700000C0000033BF12BE21BF84E690E0EFE962
:100A8000FFE03197F1F700C000000197C1F713BEF6
:100A900010BEC498FFEF45EA8EE0F1504040804020
:100AA000E1F700C00000689420F8DB9A9FEFE9E6C8
:100AB000F8E19150E040F040E1F700C00000E89418
:100AC00020F8DB98BECF22FC0895689422F880E2DB
:100AD00087B985E38A95F1F70000369A349BFECFFB
:100AE000349AE89422F885B1843670F70E94F504B0
:100AF000CF93DF939C01EB018D5791098439964286
:100B0000C0F4283E83E0380728F5243F91E03907F8
:100B100070F52A3F3105C0F18DE183BF12BE40E080
:100B200050E06CEA77E081E090E00E94CB1921BFB1
:100B300003C013BE10BEC4988FE99FE00197F1F780
:100B400000C000002197C1F713BE10BEC498DF910A
:100B5000CF9108958BE183BF12BE40E050E060E981
:100B600070ED83E090E00E94CB1921BFE5CF8CE1CE
:100B700083BF12BE40E050E068E478EE81E090E090
:100B80000E94CB1921BFD8CF8EE183BF12BE86ED64
:100B900093E8B9010E94A31961BFCECF94EA909364
:100BA00074009091740097FFFCCF90917100987F32
:100BB000983001F19031F1F06093730084E88093F4
:100BC00074008091740087FFFCCF80917100409386
:100BD000730084E8809374008091740087FFFCCFD9
:100BE0008091710084E9809374008091740084FD89
:100BF000FCCF08958093730084E880937400809103
:100C0000740087FFFCCF80917100D6CF94EA909357
:100C100074009091740097FFFCCF90917100987FC1
:100C2000983009F440C09031F1F16093730094E87A
:100C3000909374009091740097FFFCCF9091710095
:100C40009AE19A95F1F700C094EA9093740090911C
:100C5000740097FFFCCF90917100987F9830B1F0AD
:100C60009031A1F084E8809374008091740087FF34
:100C7000FCCF80917300FA01808384E98093740033
:100C80008091740084FDFCCF81E0089581608093A1
:100C9000730084E8809374008091740087FFFCCF18
:100CA00080917100DFCF8093730094E8909374007B
:100CB0009091740097FFFCCF90917100B6CFDF92B6
:100CC000EF92FF920F931F93CF93DF931F92CDB7B5
:100CD000DEB7182FF62EE42ED22E1982AE014F5F0A
:100CE0005F4F0E940606811109C00F90DF91CF91DE
:100CF0001F910F91FF90EF90DF9008952E2D30E01F
:100D00002D1931092F5F3F4F81E090E002C0880F1D
:100D1000991FDA94E2F70197022E01C0880F0A9416
:100D2000EAF7402F50E0BA0102C0660F771F2A95FC
:100D3000E2F7482F4095998149238623482B498320
:100D40006F2D812F0E94CE05D0CFEF92FF920F938F
:100D50001F93CF93DF931F92CDB7DEB7182F062FC7
:100D6000F42EE22EAE014F5F5F4F0E94060641E077
:100D700050E001C0440FFA94EAF7E11010C040952A
:100D8000898148234983602F812F0E94CE050F90CF
:100D9000DF91CF911F910F91FF90EF90089589817E
:100DA000482BF0CF94EA909374009091740097FFD1
:100DB000FCCF90917100987F983009F44DC090312C
:100DC00009F44AC06093730094E890937400909182
:100DD000740097FFFCCF909171009AE19A95F1F71A
:100DE00000C094EA909374009091740097FFFCCF38
:100DF00090917100987F983011F1903101F141503C
:100E000090E054ECD901A40FB11D64E8491781F1B9
:100E1000F901E90FF11D509374008091740087FF70
:100E2000FCCF8091730080839F5F491778F784E936
:100E3000809374008091740084FDFCCF08958160DC
:100E40008093730084E8809374008091740087FF1E
:100E5000FCCF80917100D3CF8093730094E890937E
:100E600074009091740097FFFCCF90917100AACF0D
:100E7000609374008091740087FFFCCF80917300B1
:100E80008C93D2CF4F925F926F927F928F929F926C
:100E9000AF92BF92CF92DF92EF92FF920F931F9388
:100EA000CF93DF9300D000D000D0CDB7DEB76C0178
:100EB0004B015A012C83EB82122F1F71412F6DE6DB
:100EC000FC0180810E94CE05402F6EE6F6018081F4
:100ED0000E94CE0580E190E00E94E81C9A838983FD
:100EE000EB80E1100BC1A114B10409F426C1412C1F
:100EF000512CE12CF12C702E612EC7014096A816C2
:100F0000B90608F0E3C0FA2DFE19FE838F2F90E09A
:100F100020E031E027193109281739071CF4872D03
:100F200081958E839B81992309F499C0EE81EE23EC
:100F300009F49BC08E2FF401EE0DFF1DD2018150EC
:100F400090E00196840D951D24912D933196A8175C
:100F5000B907D1F7F6019081F4EAF093740080911B
:100F6000740087FFFCCF80917100887F883009F47E
:100F7000B5C0803109F4B2C08FE68093730094E865
:100F8000909374008091740087FFFCCF8091710072
:100F9000F20190E081918093730024E82093740023
:100FA0008091740087FFFCCF809171009F5F8E81DC
:100FB000981780F394E99093740080917400982FAF
:100FC000907184FDFACF9D8389819A81892B09F4E0
:100FD00091C0462D6DE6F60180810E94CE05472D19
:100FE0006EE6F60180810E94CE0529813A814E810C
:100FF0006FE6F60180810E94D206FE810F2F10E07D
:10100000A80169817A81C2010E94EE1E892B09F034
:1010100087C0E00EF11EEA14FB0408F43DC089818C
:101020009A810E94801DFB81F11175C011E0812F12
:1010300026960FB6F894DEBF0FBECDBFDF91CF91DD
:101040001F910F91FF90EF90DF90CF90BF90AF90E6
:101050009F908F907F906F905F904F9008952401A4
:101060004E0C5F1CFE81F11175CF89819A81892B0D
:1010700091F1462D6DE6F60180810E94CE05472D47
:101080006EE6F60180810E94CE0500E010E0E00EE1
:10109000F11EEA14FB0418F6FE817F0E29F42C8160
:1010A0002F5F2C832F71622E462D6DE6F601808115
:1010B0000E94CE05472D6EE6F60180810E94CE0586
:1010C000C7014096A816B90608F41DCF80E190E04C
:1010D00020E12E831DCF00E010E09BCF90937300A2
:1010E00024E8209374008091740087FFFCCF8091E6
:1010F000710042CF9E81092F10E08BCF80E190E0FC
:101100000E94E81C2C01A114B10409F0F2CE8981DF
:101110009A810E94801DC2010E94801D11E087CF2C
:101120001D8189819A810E94801DEB81EE2309F443
:101130007ECFC2010E94801D7ACF0E94801D76CF93
:101140004F925F926F927F928F929F92AF92BF92D7
:10115000CF92DF92EF92FF920F931F93CF93DF9383
:10116000CDB7DEB72C970FB6F894DEBF0FBECDBF5C
:101170009A83898378876F835A87498788E090E0CC
:101180000E94E81C5C0189859A85892B09F484C139
:10119000E12CF12C24E8722EEF81F885EE0DFF1D75
:1011A00084918C83F70131968F819885E80FF91F20
:1011B0006490F7013396FE83ED833197E80FF91FB2
:1011C0000491002309F491C1802E912C033008F082
:1011D000A3C1FC018D819E81E80FF91FD501C501D6
:1011E000880D991D24912D9331968A179B07D1F76D
:1011F0009C819F719B83492F6DE6E981FA818081F3
:101200000E94CE05462D6EE6E981FA8180810E941A
:10121000CE0580E190E00E94E81C2C011C861B8614
:101220008B859C8540968816990608F09FC0102FE4
:10123000FB851F1B212F30E080E091E0861991098A
:101240008217930714F4162D1195CB84DC84CA0CF5
:10125000DB1CE981FA81808111115BC141145104C9
:1012600009F435C14B816DE60E94CE05462D6EE630
:10127000E981FA8180810E94CE05E12CF12CEB8579
:10128000FC85EE0DFF1DFC87EB87E815F90508F0DE
:10129000F6C0610E29F4FC81FF5FFC83FF71FB83C4
:1012A000E981FA819081F4EAF093740080917400EE
:1012B00087FFFCCF80917100887F883009F4F1C0EE
:1012C000803109F4EEC08DE6809373007092740053
:1012D0008091740087FFFCCF809171008B81809397
:1012E0007300709274008091740087FFFCCF80912E
:1012F000710094E9909374008091740084FDFCCF98
:10130000E981FA819081F4EAF0937400809174008D
:1013100087FFFCCF80917100887F883009F4CCC0B2
:10132000803109F4C9C08EE6809373007092740016
:101330008091740087FFFCCF8091710060927300F0
:10134000709274008091740087FFFCCF80917100CF
:1013500084E9809374008091740084FDFCCF8B85B8
:101360009C8540968816990608F461CF80E091E04C
:101370008619910940970CF466CFCB84DC84CA0CA3
:10138000DB1CE981FA81808190E1E92EF12C10E1EA
:10139000F4EAF09374009091740097FFFCCF909161
:1013A0007100987F983009F495C0903109F492C08B
:1013B0008FE680937300709274008091740087FFB1
:1013C000FCCF80917100F6018FEF810F90E00196C4
:1013D0008C0D9D1D219120937300709274002091BB
:1013E000740027FFFCCF209171008E179F0791F7A3
:1013F00094E9909374008091740084FDFCCF4114B3
:10140000510409F43CCF4B816DE6E981FA8180817A
:101410000E94CE05462D6EE6E981FA8180810E9408
:10142000CE059201412F6FE6E981FA8180810E9409
:10143000D206A701B201C6010E94EE1E892B09F453
:101440001ECFC2010E94801DC5010E94801D80E048
:101450002C960FB6F894DEBF0FBECDBFDF91CF91B3
:101460001F910F91FF90EF90DF90CF90BF90AF90C2
:101470009F908F907F906F905F904F900895C201E2
:101480000E94801DED80FE80E80CF91CE985FA853C
:10149000EE16FF0608F480CEC5010E94801D81E093
:1014A000D7CF90937300709274008091740087FF7F
:1014B000FCCF8091710007CF9093730070927400FD
:1014C0008091740087FFFCCF809171002CCFE12CBC
:1014D000F12CD5CE809373007092740080917400CB
:1014E00087FFFCCF8091710063CFFC0194E0E90E8F
:1014F000F11C8D819E81E80FF91FE491E13009F024
:10150000A3CF42E368E3E981FA8180810E94CE059E
:10151000BDCFE12EF12C3CCFB401C5010E94091EC4
:101520005C01EF81F88556CECF93DF93D82FC92F7A
:1015300080EC0E94CA04ED2FFC2FAF01405F5F4F8B
:10154000222D217029C09D609BBB35E03A95F1F7B3
:101550000000DA989AE19A95F1F700C030E1839F94
:10156000C0011124211121C085608BBB85E08A95C3
:10157000F1F70000DA9895ED9A95F1F70000DA9A04
:101580003FE788E391E0315080409040E1F700C0B0
:1015900000004E175F0761F08191D89A982F907FD5
:1015A0002111D1CF95609BBBD0CF8D608BBBDECF9F
:1015B000DF91CF9108951F920F920FB60F921124D1
:1015C0000BB60F928F93EF93FF93CF93DF9300D0DF
:1015D000CDB7DEB780919B008A8380919C00898380
:1015E0008A818C71A9F4E091E002F0E08981EF51E9
:1015F000FD4F80838091E0028F5F8093E002803115
:10160000D9F08091DE028F5F8093DE02803171F02D
:101610000F900F90DF91CF91FF91EF918F910F90ED
:101620000BBE0F900FBE0F901F9018951092DE0208
:1016300081E08093DD02ECCF1092E0028091DE0227
:101640008F5F8093DE02803119F7F0CF77FD0DC0F8
:1016500070938500609384001D9A57FD10C05093CD
:101660008700409386001A9A0895719561957109D3
:1016700070938500609384001D9857FFF0CF5195BB
:101680004195510950938700409386001A98089518
:101690004F925F926F927F928F929F92AF92BF9282
:1016A000CF92DF92EF92FF920F931F93CF93DF932E
:1016B000CDB7DEB72C970FB6F894DEBF0FBECDBF07
:1016C0008C018091CC029091CD02A091CE02B0917C
:1016D000CF0289879A87AB87BC878091BC029091A3
:1016E000BD02A091BE02B091BF0289839A83AB83F1
:1016F000BC838091C0029091C102A091C202B091BE
:10170000C3028D839E83AF83B8878090C40290907C
:10171000C502A090C602B090C702C090C802D09087
:10172000C902E090CA02F090CB0269817A818B8174
:101730009C81905829813A814B815C810E94771C61
:101740002B013C012D813E814F815885CA01B90191
:101750000E94771C9B01AC01C301B2010E94061AD2
:101760002B013C01A5019401C501B4010E94771C25
:101770009B01AC01C301B2010E94061A2B013C017E
:10178000A7019601C701B6010E94771C9B01AC011D
:10179000C301B2010E94051A29853A854B855C85F3
:1017A0000E94771C20E030E040E05FE30E94771C5D
:1017B0002B013C01A501940169817A818B819C8177
:1017C0000E94771C4B015C01A70196016D817E810F
:1017D0008F8198850E94771C9B01AC01C501B401E3
:1017E0000E94051A29853A854B855C850E94771CE5
:1017F000A30192010E94851A21EE3EE245E652E4E1
:101800000E94771C2DEC3CEC42EC52E40E94061A3C
:101810006B017C0160938202709383028093840247
:101820009093850220E030E048E452E40E94E41AFC
:1018300087FFE6C020E030E048E452ECC701B60183
:101840000E946A1C18160CF0DBC02091FF02309138
:1018500000034091010350910203C701B6010E94A9
:10186000061A4B015C012DEC3CEC4CEC5EE30E9453
:10187000771C2091FB023091FC024091FD025091B7
:10188000FE020E94061A3B018D839983CB01AD8134
:10189000B9818093FB029093FC02A093FD02B09368
:1018A000FE02C092FF02D0920003E0920103F09288
:1018B000020320E030E048EC53E4B301CD010E9484
:1018C0006A1C18160CF4C5C020E030E048EC53EC5C
:1018D000B3018D8199810E94E41A87FFD2C080E014
:1018E00090E0A8ECB3EC8093FB029093FC02A093F1
:1018F000FD02B093FE02E12CF12CB8ECBD83E3ECC9
:10190000E98320E030E0A901C501B4010E94E41A96
:101910002401350187FDB0C020E030E040E151E412
:10192000C501B4010E94771C4B015C012AE037ED30
:1019300043EA5CE3C301B2010E94771C2AE939E95A
:1019400049E15FE30E94061A2B013C016091B80255
:101950007091B902072E000C880B990B0E94931B03
:101960009B01AC01C301B2010E94771C9B01AC0139
:10197000C501B4010E94051A97014D8159810E9449
:10198000061A0E945B1BD80111964C91042E000C84
:10199000550B9B01241B350B640F751FC9012037A4
:1019A0003E4F14F480E79EEF6037EEEF7E0714F4AD
:1019B00060E77EEFAB016139714014F040E951E01E
:1019C000BC018139914014F060E971E084ED92E04E
:1019D0002C960FB6F894DEBF0FBECDBFDF91CF912E
:1019E0001F910F91FF90EF90DF90CF90BF90AF903D
:1019F0009F908F907F906F905F904F900C94260BEC
:101A000010928500109284001D9A10928700109207
:101A100086001A9A1092FB021092FC021092FD02AC
:101A20001092FE022C960FB6F894DEBF0FBECDBF0B
:101A3000DF91CF911F910F91FF90EF90DF90CF90AA
:101A4000BF90AF909F908F907F906F905F904F90DE
:101A5000089580E090E0A8ECB3E48093FB029093BB
:101A6000FC02A093FD02B093FE02E12CF12C98EC55
:101A70009D83A3E4A98345CF77FA709477F8709497
:101A80004BCF73013ECF8BE183BF12BE8AEF81BF84
:101A900084E690E0EFE9FFE03197F1F700C0000045
:101AA0000197C1F713BE10BEC4988CE183BF12BE6C
:101AB0008AEF81BF84E190E0EFE9FFE03197F1F731
:101AC00000C000000197C1F713BE10BEC4988BE19F
:101AD00083BF12BE83E581BF82E390E0EFE9FFE0C0
:101AE0003197F1F700C000000197C1F713BE10BE97
:101AF000C4988CE183BF12BE8AEF81BF84E190E07D
:101B0000EFE9FFE03197F1F700C000000197C1F75E
:101B100013BE10BEC4988BE183BF12BE83E581BFA4
:101B200084E690E0EFE9FFE03197F1F700C00000B4
:101B30000197C1F713BE10BEC4988CE183BF12BEDB
:101B40008AEF81BF84E190E0EFE9FFE03197F1F7A0
:101B500000C000000197C1F713BE10BEC4988BE10E
:101B600083BF12BE8DE781BF82E390E0EFE9FFE023
:101B70003197F1F700C000000197C1F713BE10BE06
:101B8000C49808958BE183BF12BE83E581BF84E6CC
:101B900090E0EFE9FFE03197F1F700C00000019716
:101BA000C1F713BE10BEC4988CE183BF12BE8AEF8A
:101BB00081BF84E190E0EFE9FFE03197F1F700C0E9
:101BC00000000197C1F713BE10BEC4988BE183BF1C
:101BD00012BE84E681BF86E990E0EFE9FFE031972D
:101BE000F1F700C000000197C1F713BE10BEC49802
:101BF0008CE183BF12BE8AEF81BF84E190E0EFE900
:101C0000FFE03197F1F700C000000197C1F713BE64
:101C100010BEC4988BE183BF12BE8AEF81BF82E3FE
:101C200090E0EFE9FFE03197F1F700C00000019785
:101C3000C1F713BE10BEC4988CE183BF12BE8AEFF9
:101C400081BF84E190E0EFE9FFE03197F1F700C058
:101C500000000197C1F713BE10BEC4988BE183BF8B
:101C600012BE83E581BF82E390E0EFE9FFE03197A8
:101C7000F1F700C000000197C1F713BE10BEC49871
:101C800008958BE183BF12BE8DE781BF8AEF90E09C
:101C9000EFE9FFE03197F1F700C000000197C1F7CD
:101CA00013BE10BEC498FFEF29E688E1F150204032
:101CB0008040E1F700C000008BE183BF12BE8DE7DA
:101CC00081BF8AEF90E0EFE9FFE03197F1F700C0C4
:101CD00000000197C1F713BE10BEC498FFEF29E6BC
:101CE00088E1F15020408040E1F700C000008BE126
:101CF00083BF12BE8DE781BF8AEF90E0EFE9FFE07E
:101D00003197F1F700C000000197C1F713BE10BE74
:101D1000C4980895D898862F807F20FE20C08C60BC
:101D20008BBB85E08A95F1F70000DA989AE19A95E5
:101D3000F1F700C020FC16C090E1699FB0011124AA
:101D400064606BBB85E08A95F1F70000DA988FEE4E
:101D50009AE00197F1F700C00000DA9A08958460D4
:101D60008BBBDFCF80E1689FB00111246C606BBB3F
:101D7000E9CFD89A862F807F20FE1EC08D608BBB56
:101D800085E08A95F1F70000DA988AE18A95F1F703
:101D900000C080E1689FB001112420FC10C0656084
:101DA0006BBB85E08A95F1F70000DA9885ED8A959E
:101DB000F1F70000DA9A089585608BBBE1CF6D6082
:101DC0006BBBEFCFCF93DF93EC012FEF80E792E077
:101DD000215080409040E1F700C0000084E38BBBBD
:101DE000E5E0EA95F1F70000DA98EFE1FEE43197DB
:101DF000F1F700C000008BBBF5E0FA95F1F70000A9
:101E0000DA98EFE9FFE03197F1F700C000008BBBF3
:101E1000F5E0FA95F1F70000DA988FE99FE0019775
:101E2000F1F700C0000084E28BBB95E09A95F1F7D2
:101E30000000DA9868E2CE010E948A0E60E1CE01CD
:101E40000E948A0E66E0CE010E948A0E6CE0CE01EE
:101E50000E948A0E61E0CE010E948A0EEFE3FFE14C
:101E60003197F1F700C00000DF91CF910895611123
:101E70002CC060E80E948A0E80E1922D917045E2AC
:101E80003DE225E05DE019C03BBB65E06A95F1F7F6
:101E90000000DA986AE16A95F1F700C0911112C06A
:101EA0002BBB65E06A95F1F70000DA9865ED6A955D
:101EB000F1F70000DA9A815039F0D89A9111E4CF05
:101EC0004BBBE3CF5BBBEDCF089560EC0E948A0E65
:101ED000D3CF0F93CF93DF93EC0101E023E042E0F7
:101EE0006BE688810E945F0600E022E044E06BE13F
:101EF00088810E945F0622E044E06CE188810E94B4
:101F00005F0620E046E06BE68881DF91CF910F917C
:101F10000C94A506FC01208184EA809374009091C2
:101F2000740097FFFCCF90917100987F983009F46E
:101F300045C0903109F442C082E78093730084E881
:101F4000809374009091740097FFFCCF8091710092
:101F5000908184EA809374008091740087FFFCCFA5
:101F600080917100887F8830E1F08031D1F084EC7D
:101F7000809374008091740087FFFCCF9091730070
:101F800084E8809374008091740087FFFCCF809177
:101F9000730024E9209374002091740024FDFCCF89
:101FA000089591609093730084E880937400809109
:101FB000740087FFFCCF80917100D9CF209373000C
:101FC00084E8809374009091740097FFFCCF809117
:101FD0007100B2CF4F925F926F927F928F929F92D9
:101FE000AF92BF92CF92DF92EF92FF920F931F9327
:101FF000CF93DF935C013B017A01522E822F8F71C8
:10200000482E482F6DE6F50180810E94CE05402FB5
:102010006EE6F50180810E94CE05E114F104F9F02D
:10202000C0E0D0E0812C992493946E01F0E1CF0EB2
:10203000D11CEC14FD04E8F51E2D1C1B212F30E0F3
:10204000C401801B91098217930714F4102F119576
:10205000F501808111113EC0CE15DF0588F0DF91BA
:10206000CF911F910F91FF90EF90DF90CF90BF9095
:10207000AF909F908F907F906F905F904F9008955A
:10208000010F21F45394F52DFF714F2E442D6DE671
:10209000F50180810E94CE05402F6EE6F50180811A
:1020A0000E94CE056E01F0E1CF0ED11CEC14FD04B0
:1020B00018F2C401801B9109409744F293012C0F40
:1020C0003D1FF501808110E1412F6FE60E94D2068D
:1020D000E601C2CF93012C0F3D1F6E01C10ED11C32
:1020E000F3CF4F925F926F927F928F929F92AF92B7
:1020F000BF92CF92DF92EF92FF920F931F93CF93F5
:10210000DF9300D000D000D0CDB7DEB79E838D83A3
:10211000DC011F961C911F9750960C91B801110F6E
:10212000880B990B0E94931B20E030E040E858E3B5
:102130000E94771C2B013C01ED81FE8163AB74ABE7
:1021400085AB96AB13890489B801110F880B990BE5
:102150000E94931B20E030E040E858E30E94771C87
:102160004B015C01AD81BE81D7966D937D938D93BC
:102170009C93DA9757961C91579758960C91B801F3
:10218000110F880B990B0E94931B20E030E040E870
:1021900058E30E94771C6B017C01ED81FE8163AFE7
:1021A00074AF85AF96AF138D048DB801110F880BF6
:1021B000990B0E94931B20E030E040E858E30E9416
:1021C000771C69837A838B839C83ED81FE81FF96E4
:1021D00060837183828393838D819E818D5B9F4F0A
:1021E0009E838D83A3019201C301B2010E94771CDB
:1021F0002B013C01A5019401C501B4010E94771C8B
:102200009B01AC01C301B2010E94061A4B015C01A3
:10221000A7019601C701B6010E94771C9B01AC0182
:10222000C501B4010E94061A6B017C0129813A8123
:102230004B815C81CA01B9010E94771C9B01AC01F2
:10224000C701B6010E94061A9B01AC0160E070E074
:1022500080E090E40E94E91AAD81BE816D937D9388
:102260008D939C93139726960FB6F894DEBF0FBEFE
:10227000CDBFDF91CF911F910F91FF90EF90DF9035
:10228000CF90BF90AF909F908F907F906F905F9016
:102290004F900895AF92BF92CF92DF92EF920F933B
:1022A000CF93DF93CDB7DEB760970FB6F894DEBF5C
:1022B0000FBECDBF5C0121E047E06BE6FC018081F1
:1022C0000E94A506FFEF26E781E0F1502040804004
:1022D000E1F700C0000020E046E06BE6F5018081F8
:1022E0000E94A50640E76DE6F50180810E94CE05BB
:1022F00046E06EE6F50180810E94CE0540E06DE685
:10230000F50180810E94CE054FE765E2F5018081ED
:102310000E94CE0520E045E06AE6F50180810E943A
:10232000A50648E665E2F50180810E94CE0521E020
:1023300041E06AE6F50180810E94A506FFEF29EFE2
:1023400080E0F15020408040E1F700C00000EE2422
:10235000E39400E020E049E857E06FE571E0C50153
:102360000E944207811110C080E060960FB6F89479
:10237000DEBF0FBECDBFDF91CF910F91EF90DF9009
:10238000CF90BF90AF90089546E750E069EE70E0BF
:10239000C5010E94A008882339F303E023E042E04E
:1023A0006BE6F50180810E945F0642E168E3F5017A
:1023B00080810E94CE0544E069E1F50180810E94A0
:1023C000CE0501E023E045E06AE1F50180810E944D
:1023D0005F0603E023E042E06AE1F50180810E94AC
:1023E0005F0622E044E06BE1F50180810E945F0618
:1023F00043E060E7F50180810E94CE0540E061E79F
:10240000F50180810E94CE0520E040E060E0F5010A
:1024100080810E94A506C12CD12C20E080E090E0B4
:1024200002C0822F90E0F601E654FF4FE491A1E054
:10243000B0E0AC0FBD1FA80FB91FEC932F5FFFEFEB
:10244000CF1ADF0A243068F34B8150E0BA016E5F87
:102450007F4F822F90E0681779072CF7E12C0A81D3
:102460002981BE016C5F7F4FC5010E94420720E0B9
:1024700080E090E0F601E654FF4FE491A1E0B0E087
:10248000AC0FBD1FA80FB91FEC932F5F8FEFC81AB9
:10249000D80A243018F4822F90E0ECCF4B8150E022
:1024A000BA016E5F7F4F822F90E06817790714F7AB
:1024B000E12C0A812981BE016C5F7F4FC5010E941A
:1024C000420721E042E06AE6F50180810E94A5060C
:1024D000C5010E948A0F42E06FE1F50180810E94F0
:1024E000CE054CE961E2F50180810E94CE0540E510
:1024F00060E2F50180810E94CE0540E062E2F501D4
:1025000080810E94CE0521E042E06AE6F5018081EB
:102510000E94A50621E046E06AE6F50180810E945E
:10252000A50621E047E06AE6F50180810E94A50644
:1025300021E043E06AE6F50180810E94A50620E0E3
:1025400080E090E0F601E654FF4FE491A1E0B0E0B6
:10255000AC0FBD1FA80FB91FEC932F5FFFEFCF1A71
:10256000DF0A243018F4822F90E0ECCF4B8150E04A
:10257000BA016E5F7F4F822F90E06817790714F7DA
:10258000E12C0A812981BE016C5F7F4FC5010E9449
:10259000420720E080E090E0F601E654FF4FE4912E
:1025A000A1E0B0E0AC0FBD1FA80FB91FEC932F5FE7
:1025B0008FEFC81AD80A243018F4822F90E0ECCF9D
:1025C0004B8150E0BA016E5F7F4F822F90E0681719
:1025D000790714F7E12C0A812981BE016C5F7F4FD6
:1025E000C5010E94420720E080E090E0F601E65439
:1025F000FF4FE491A1E0B0E0AC0FBD1FA80FB91FE1
:10260000EC932F5F9FEFC91AD90A243018F4822F58
:1026100090E0ECCF4B8150E0BA016E5F7F4F822F8C
:1026200090E06817790714F7E12C0A812981BE012F
:102630006C5F7F4FC5010E944207C5010E948A0F4F
:102640000397D8F320E080E090E0F601E654FF4FD6
:10265000E491A1E0B0E0AC0FBD1FA80FB91FEC934F
:102660002F5FEFEFCE1ADE0A243018F4822F90E0AD
:10267000ECCF4B8150E0BA016E5F7F4F822F90E02C
:102680006817790714F70A812981BE016C5F7F4FB3
:10269000C5010E94EA0FC5010E948A0F0397D8F373
:1026A000F601E654FF4F20E080E090E03491A1E095
:1026B000B0E0AC0FBD1FA80FB91F3C932F5F2430B3
:1026C00020F4822F90E03196F1CF4B8150E0BA0197
:1026D0006E5F7F4F822F90E068177907A4F7E12C97
:1026E0000A812981BE016C5F7F4FC5010E944207AC
:1026F00020E047E06AE6F50180810E94A50621E01E
:1027000042E06AE6F50180810E94A50661E082ED63
:1027100092E00E94370F8AE291E00E94940A81E0E1
:1027200024CE1F920F920FB60F9211248F939F9376
:102730000E9B18C0B09B18C0F8948091D80290915D
:10274000D90201979093D9028093D8028091D60242
:102750008F5F8093D6029F918F910F900FBE0F9045
:102760001F901895B09BE8CFF8948091D802909173
:10277000D90201969093D9028093D802E7CF1F9295
:102780000F920FB60F9211248F939F930F9918C039
:10279000B29918C0F8948091DA029091DB02019608
:1027A0009093DB028093DA028091D7028F5F80934F
:1027B000D7029F918F910F900FBE0F901F90189589
:1027C000B299E8CFF8948091DA029091DB020197F8
:1027D0009093DB028093DA02E7CF1F920F920FB63D
:1027E0000F9211242F938F939F938091F3029091D6
:1027F000F4020196893E23E0920760F01092F40201
:102800001092F3029F918F912F910F900FBE0F9016
:102810001F9018959093F4028093F3029F918F91EB
:102820002F910F900FBE0F901F9018951F920F922F
:102830000FB60F9211248F938091010181508093E4
:102840000101882349F082E08FBD78948F910F9029
:102850000FBE0F901F90189582E0809301018AEAC5
:102860008FBD78948F910F900FBE0F901F90189589
:102870001F920F920FB60F9211240BB60F920F9367
:102880001F932F933F934F935F936F937F938F93F8
:102890009F93AF93BF93CF93EF93FF93789423FECF
:1028A00015C089E892E00E948A0F8C01C3E18C3147
:1028B00018F18C3151F18D3108F052C0112710936D
:1028C000810200938002AC9A33FC45C0FF91EF91E6
:1028D000CF91BF91AF919F918F917F916F915F91B8
:1028E0004F913F912F911F910F910F900BBE0F9021
:1028F0000FBE0F901F90189589E892E00E948A0FF2
:102900008C01C150A1F68C31B1F628E932E04CE1DE
:1029100064E7809189020E94D20689E892E00E94D1
:1029200071108091A8029091A9029093B6028093B1
:10293000B7028091AC029091AD029093B80280935F
:10294000B9028091B0029091B1029093BA02809343
:10295000BB02AC98B9CF86E892E00E94480BB6CF94
:1029600021E042E06AE6809189020E94A506A6CF96
:102970001F920F920FB60F9211242F938F939F9354
:1029800078948091000181508093000181110BC0E7
:102990008AE0809300019F918F912F910F900FBE3D
:1029A0000F901F9018958430A1F08930A1F7809185
:1029B000D6029091F202282F291B2093D4028093F3
:1029C000F2029F918F912F910F900FBE0F901F9049
:1029D00018958091D7029091F102282F291B2093FE
:1029E000D5028093F1029F918F912F910F900FBE8E
:1029F0000F901F901895EF92FF920F931F93CF9314
:102A0000DF931F92CDB7DEB7E89420F8E89421F861
:102A1000E89422F8E89423F8E89424F81BBA9FEF8E
:102A20009ABB85E088BB88EF87BB95BB80EF84BBF2
:102A300012BA81BB80EC83B92CE322B910926200F8
:102A400010926100909365001092640010BE13BE56
:102A500012BE11BE9AEA9FBD92E19EBD1DBC1CBC78
:102A600027E833E137BD26BD9BE095BD14BC99EF47
:102A700093BD92EF90938B0091E190938A00109216
:102A800089001092880091E09093810090E99093E2
:102A9000800010928700109286001092850010929C
:102AA00084001092830098EC9093820010926A0048
:102AB00090E59ABF89BF88BF84EA87BF82E0809390
:102AC0007D0010929B0088E980939A0086E08093B5
:102AD0009D001092980087E68093990080E888B95D
:102AE00010BCF89482ED92E00E94E20E689420F807
:102AF000DB9A80E80E94CA040BE212E084E50E949F
:102B0000A104F80181918F018111F9CF80EC0E941D
:102B1000CA0422FCFFCF689422F880E287B9F5E36B
:102B2000FA95F1F70000369A349BFECF349AE89478
:102B300022F825B18EE5289F90011124C90163E197
:102B400070E00E94B7197B01C9016CE677E00E9432
:102B5000B71980E3860F0E94A1048EE20E94A104AF
:102B6000C70164E670E00E94B7190AE010E0B801FE
:102B70000E94B71980E3860F0E94A104C701B80123
:102B80000E94B719805D0E94A1040CE312E080E26C
:102B90000E94A104F80181918F018111F9CF83ED89
:102BA00092E00E94430D9FEFE3ECF9E09150E0408A
:102BB000F040E1F700C000000E946305E89423F8AC
:102BC000109271008CE08093700080E80E94CA042B
:102BD00003E512E08DE40E94A104F80181918F01C8
:102BE0008111F9CFAE014F5F5F4F65E78091890298
:102BF0000E940606811145C090918A02943309F41F
:102C00004BC080E80E94CA0409E112E0F8018191FA
:102C10008F010E94A104FFE728E381E0F1502040EA
:102C20008040E1F700C0000092E00932190771F717
:102C300080EC0E94CA0408E012E088E1E82E82E0FD
:102C4000F82EF80181918F010E94A104FFE728E38B
:102C500081E0F15020408040E1F700C00000E01624
:102C6000F10679F783ED92E00E94410E9899FECF2C
:102C700078940F90DF91CF911F910F91FF90EF907B
:102C8000089589818E7790E095958795982F809308
:102C90008A02943309F0B5CF89E892E00E94690F67
:102CA00089E892E00E944A11882309F4AACF81E4BE
:102CB00092E00E94940A83ED92E00E94C20DD8CF68
:102CC000CF93DF9300D000D01F92CDB7DEB70E9424
:102CD000FB1481E00E94CA048FE39FE10197F1F7A2
:102CE00000C0000021E047E06AE6809189020E946E
:102CF000A50621E042E06AE6809189020E94A506CD
:102D0000E89433F8109285001092840010928700A6
:102D100010928600689423F81092860280EC0E943C
:102D2000CA04E4E6F2E0FA83E98383E40E94A104A2
:102D3000E981FA818191FA83E9838111F7CFF9E37F
:102D4000F9838BEC0E94CA0489810E94A1042FEFB1
:102D500039E648E1215030404040E1F700C0000032
:102D60005981515059835F3261F780EC0E94CA0447
:102D700080E792E09A83898382E40E94A104E9813A
:102D8000FA818191FA83E9838111F7CF68EC70E0D1
:102D900080ED97E00E947805689423F8689433F8F2
:102DA00064E8762E7CE8672EE4E6AE2EF8EE4F2E31
:102DB000F3E05F2ED89820FEE4C06BBAF5E0FA95F8
:102DC000F1F70000DA982AE12A95F1F700C020FC1B
:102DD000F7C044E04BBB55E05A95F1F70000DA9894
:102DE0008FEE9AE00197F1F700C00000DA9AC090E8
:102DF0008202D0908302E0908402F0908502C701A5
:102E0000B6010E945B1B69837A838B839C838980D4
:102E10009A8020E030E0A901C701B6010E94E41ABF
:102E200087FD54C2BB24B39490E1891697E29906BA
:102E30000CF0DCC038EE831633E093060CF078C15A
:102E4000F4E68F1691040CF0EAC159E0581508F425
:102E50004CC2C4016AE070E00E94B719805DD89A44
:102E6000982F907F20FED8C19D609BBB95E09A95DE
:102E7000F1F70000DA98EAE1EA95F1F700C020FCEA
:102E80001EC220E1829FC001112485608BBB35E00A
:102E90003A95F1F70000DA9845ED4A95F1F7000010
:102EA000DA9AD89A20FE41C18DE28BBB85E08A95E3
:102EB000F1F70000DA989AE19A95F1F700C020FC4A
:102EC00011C285EE8BBBE5E0EA95F1F70000DA98D8
:102ED000F5EDFA95F1F70000DA9AB401990C880B38
:102EE000990B0E94931B9B01AC01C701B6010E9484
:102EF000051A20E030E048EC52E40E94771C0E9462
:102F0000621B6D832DEC629F212D11242695269541
:102F100026952983822F805D0E94A1048D8149819D
:102F20003AE0439F80191124805D0E94A104B110F2
:102F30002AC082E38093870280ED97E0EFE9FFE00B
:102F40003197F1F700C000000197C1F78EEC809334
:102F5000870280ED97E0EFE9FFE03197F1F700C0DD
:102F600000000197C1F722FE2EC02FEF30E742E0AC
:102F7000215030404040E1F700C00000D89820FCCC
:102F80001CCF7BBA1BCFD89A20FE43C18DE28BBBEE
:102F900085E08A95F1F70000DA989AE19A95F1F7C1
:102FA00000C020FC89C185E08BBBE5E0EA95F1F724
:102FB0000000DA98F5EDFA95F1F70000DA9AB9CF4A
:102FC0003CE03BBB08CF689422F880E287B9F5E388
:102FD000FA95F1F70000369A349BFECF349AE894C4
:102FE00022F885B1843608F60E94F50494013295E2
:102FF00022952F7023273F702327A7E4B3E00E9478
:10300000ED199695879596958795969587959A83C8
:103010008983682F605D82ED92E00E94B90EE9819C
:10302000FA8120E137E2E29FC001E39F900DF29F19
:10303000900D11248401081B190B980136952795D2
:103040003695279536952795A5ECB0E20E94ED19A7
:10305000929582958F7089279F7089279A8389839B
:10306000682F605D82ED92E00E94B90E49815A811D
:10307000449DC001459D900D549D900D1124F80173
:10308000E81BF90BFA83E9839F013695279536955E
:103090002795ABE7B4E10E94ED198C0116950795D1
:1030A00060E3600F82ED92E00E94B90EA09EC00125
:1030B000A19E900D112429813A81281B390BADEC7A
:1030C000BCEC0E94ED1996958795969587959695F7
:1030D000879560E3680F82ED92E00E94B90E298126
:1030E0003A81ADECBCEC0E94ED19969587959695CA
:1030F0008795969587959C01220F331F880F991FFE
:10310000880F991F880F991F820F931F29813A8179
:10311000281B390B3A832983622F605D82ED92E090
:103120000E94B90ED89A20FCBFCE55E25BBBBECE42
:103130009401369527953695279536952795A5ECD4
:10314000B0E20E94ED19929582958F7089279F7049
:1031500089279A838983682F605D82ED92E00E94BF
:10316000B90E49815A81449DC001459D900D549DE1
:10317000900D11248401081B190B98013695279591
:1031800036952795ABE7B4E10E94ED1996958795A2
:103190009A838983682F605D82ED92E00E94B90E68
:1031A000E981FA81AE9EC001AF9E900D1124980175
:1031B000281B390BADECBCEC0E94ED199695879558
:1031C000969587959695879560E3680F82ED92E0D6
:1031D0000E94B90E9801ADECBCEC0E94ED199695D9
:1031E000879596958795969587959C01220F331F15
:1031F000880F991F880F991F880F991F820F931F9F
:10320000081B190B60E3600F82ED92E00E94B90E7B
:1032100048CE55E25BBBBCCE95609BBB27CE9401EC
:103220003695279536952795ABE7B4E10E94ED19C1
:10323000969587959A838983682F605D82ED92E0E9
:103240000E94B90E29813A81A29EC001A39E900DD1
:1032500011249401281B390BADECBCEC0E94ED1934
:1032600096958795969587959695879560E3680FCF
:1032700082ED92E00E94B90E9401ADECBCEC0E948C
:10328000ED199695879596958795969587959C01C6
:10329000220F331F880F991F880F991F880F991FBE
:1032A000820F931FA401481B590B60E3640F82ED4A
:1032B00092E00E94B90EF5CD8DE08BBB76CEF0E1A9
:1032C0008F9FC00111248D608BBBE1CD91948194BF
:1032D0009108F7FAF094F7F8F0948DE20E94A104B7
:1032E000B12CA2CD8DEE8BBBEECDC4016AE070E0B7
:1032F0000E94B71980E3860F0E94A104AACD8CED2D
:1033000095E09BBD8ABD99BD88BD9093790080935F
:10331000780010928500109284001092870010921D
:103320008600E4EDF2E0108211821282138280E2C4
:1033300087B984E886B980ED80938902E6E8F2E0F7
:10334000118210820895AA1BBB1B51E107C0AA1F5E
:10335000BB1FA617B70710F0A61BB70B881F991F36
:103360005A95A9F780959095BC01CD01089597FBDA
:10337000072E16F4009407D077FD09D00E94A319F8
:1033800007FC05D03EF4909581959F4F0895709568
:1033900061957F4F0895A1E21A2EAA1BBB1BFD0168
:1033A0000DC0AA1FBB1FEE1FFF1FA217B307E40724
:1033B000F50720F0A21BB30BE40BF50B661F771F7C
:1033C000881F991F1A9469F760957095809590955C
:1033D0009B01AC01BD01CF010895A29FB001B39F35
:1033E000C001A39F700D811D1124911DB29F700D0E
:1033F000811D1124911D0895EE0FFF1F0024001C54
:103400000BBE0790F691E02D09945058BB27AA27D0
:103410000E941D1A0C94301C0E94221C38F00E943D
:10342000291C20F039F49F3F19F426F40C94F81B62
:103430000EF4E095E7FB0C94F21BE92F0E94411C6F
:1034400058F3BA17620773078407950720F079F4D9
:10345000A6F50C94631C0EF4E0950B2EBA2FA02D4C
:103460000B01B90190010C01CA01A0011124FF2731
:10347000591B99F0593F50F4503E68F11A16F0402C
:10348000A22F232F342F4427585FF3CF469537952B
:103490002795A795F0405395C9F77EF41F16BA0BF0
:1034A000620B730B840BBAF09150A1F0FF0FBB1F9E
:1034B000661F771F881FC2F70EC0BA0F621F731FE7
:1034C000841F48F4879577956795B795F7959E3F44
:1034D00008F0B0CF9395880F08F09927EE0F9795D5
:1034E000879508950E94221C60F080E891E009F41D
:1034F0009EEF0E94291C28F040E851E071F45EEF35
:103500000CC00C94F81B0C94631CE92FE0780E940B
:10351000411C40F3092E052AB1F326173707480747
:10352000590738F00E2E07F8E02569F0E025E06431
:103530000AC0EF6307F8009407FADB01B9019D01A7
:10354000DC01CA01AD01EF930E94001B0E94301CF8
:103550000E94B51A5F91552339F02BED3FE049E405
:1035600050FD49EC0C94061A0895DF93DD27B92F1E
:10357000BF7740E85FE31616170648075B0718F4A5
:10358000D92F0E946F1C9F938F937F936F930E94FC
:10359000E41CECE8F0E00E94FB1B0E94301C2F9121
:1035A0003F914F915F910E948A1CDD2351F090580A
:1035B000A2EA2AED3FE049EC5FE3D0785D270E9464
:1035C0001D1ADF910C94301C0E94CE1B08F481E080
:1035D00008950E94FD1A0C94301C0E94291C58F07A
:1035E0000E94221C40F029F45F3F29F00C94F21B4A
:1035F00051110C94641C0C94F81B0E94411C68F33C
:103600009923B1F3552391F3951B550BBB27AA279B
:1036100062177307840738F09F5F5F4F220F331FD5
:10362000441FAA1FA9F335D00E2E3AF0E0E832D09D
:1036300091505040E695001CCAF72BD0FE2F29D0A0
:10364000660F771F881FBB1F261737074807AB0772
:10365000B0E809F0BB0B802DBF01FF2793585F4FE7
:103660003AF09E3F510578F00C94F21B0C94641CC8
:103670005F3FE4F3983ED4F3869577956795B795C9
:10368000F7959F5FC9F7880F911D9695879597F9D4
:103690000895E1E0660F771F881FBB1F621773074D
:1036A0008407BA0720F0621B730B840BBA0BEE1F62
:1036B00088F7E09508950E94621B6894B1110C94FC
:1036C000641C08950E94491C88F09F5798F0B92FF8
:1036D0009927B751B0F0E1F0660F771F881F991F47
:1036E0001AF0BA95C9F714C0B13091F00E94631C6A
:1036F000B1E008950C94631C672F782F8827B85F7A
:1037000039F0B93FCCF3869577956795B395D9F79E
:103710003EF490958095709561957F4F8F4F9F4FA8
:103720000895E89409C097FB3EF4909580957095B4
:1037300061957F4F8F4F9F4F9923A9F0F92F96E9FD
:10374000BB279395F695879577956795B795F11172
:10375000F8CFFAF4BB0F11F460FF1BC06F5F7F4F0F
:103760008F4F9F4F16C0882311F096E911C0772321
:1037700021F09EE8872F762F05C0662371F096E82A
:10378000862F70E060E02AF09A95660F771F881FF9
:10379000DAF7880F9695879597F90895990F00089D
:1037A000550FAA0BE0E8FEEF16161706E807F90713
:1037B000C0F012161306E407F50798F0621B730BAE
:1037C000840B950B39F40A2661F0232B242B252B2F
:1037D00021F408950A2609F4A140A6958FEF811DD2
:1037E000811D089597F99F6780E870E060E0089573
:1037F0009FEF80EC0895DF93CF931F930F93FF9279
:10380000EF92DF927B018C01689406C0DA2EEF0103
:103810000E948A1CFE01E894A5912591359145915D
:103820005591A6F3EF010E941D1AFE019701A80110
:10383000DA9469F7DF90EF90FF900F911F91CF918D
:10384000DF91089500240A94161617061806090633
:10385000089500240A941216130614060506089506
:10386000092E0394000C11F4882352F0BB0F40F48E
:10387000BF2B11F460FF04C06F5F7F4F8F4F9F4FCE
:10388000089557FD9058440F551F59F05F3F71F050
:103890004795880F97FB991F61F09F3F79F08795B7
:1038A0000895121613061406551FF2CF4695F1DF40
:1038B00008C0161617061806991FF1CF86957105D0
:1038C000610508940895E894BB2766277727CB0104
:1038D00097F908950E94CE1B08F48FEF08959B017D
:1038E000AC0160E070E080E89FE30C94E91A0E946C
:1038F0008A1C0C94301C0E94221C38F00E94291C47
:1039000020F0952311F00C94F21B0C94F81B112459
:103910000C94641C0E94411C70F3959FC1F3950F99
:1039200050E0551F629FF001729FBB27F00DB11D43
:10393000639FAA27F00DB11DAA1F649F6627B00DD3
:10394000A11D661F829F2227B00DA11D621F739FBC
:10395000B00DA11D621F839FA00D611D221F749FCA
:103960003327A00D611D231F849F600D211D822F11
:10397000762F6A2F11249F5750409AF0F1F0882338
:103980004AF0EE0FFF1FBB1F661F771F881F915065
:103990005040A9F79E3F510580F00C94F21B0C9407
:1039A000641C5F3FE4F3983ED4F386957795679562
:1039B000B795F795E7959F5FC1F7FE2B880F911D8F
:1039C0009695879597F908959B01AC010C94771C07
:1039D0000F931F93CF93DF938230910510F482E011
:1039E00090E0E0910503F091060320E030E0A0E0D4
:1039F000B0E0309719F1408151810281138148175D
:103A00005907C8F08417950769F4109731F012969A
:103A10000C93129713961C9327C0009305031093E1
:103A2000060322C02115310519F04217530718F477
:103A30009A01BD01EF01DF01F801DBCF211531054E
:103A4000F9F0281B390B2430310580F48A819B81E1
:103A50006115710521F0FB019383828304C090936B
:103A6000060380930503FE01329644C0FE01E20F77
:103A7000F31F8193919322503109398328833AC0EF
:103A80002091030330910403232B41F4209104017E
:103A90003091050130930403209303032091020128
:103AA000309103012115310541F42DB73EB7409106
:103AB000060150910701241B350BE0910303F0919F
:103AC0000403E217F307A0F42E1B3F0B2817390756
:103AD00078F0AC014E5F5F4F2417350748F04E0F6A
:103AE0005F1F50930403409303038193919302C09B
:103AF000E0E0F0E0CF01DF91CF911F910F910895A9
:103B0000CF93DF93009709F481C0FC0132971382B1
:103B10001282A0910503B0910603109781F42081D1
:103B20003181820F931F20910303309104032817E2
:103B3000390751F5F0930403E093030367C0ED01E7
:103B400020E030E0CE17DF0740F44A815B819E0120
:103B500041155105F1F0EA01F5CFD383C2834081CD
:103B60005181840F951FC817D90759F4888199810D
:103B7000840F951F0296918380838A819B81938312
:103B800082832115310529F4F0930603E0930503A0
:103B90003DC0E901FB83EA8349915991C40FD51FC8
:103BA000EC17FD0761F480819181840F951F0296C7
:103BB000E90199838883828193819B838A83E0E0F2
:103BC000F0E012968D919C911397009719F0FD01EA
:103BD000DC01F7CF8D919C9111979D012E5F3F4F96
:103BE000820F931F20910303309104032817390794
:103BF00069F4309729F4109206031092050302C06D
:103C000013821282B0930403A0930303DF91CF9138
:103C100008956F927F928F929F92AF92BF92CF92B0
:103C2000DF92EF92FF920F931F93CF93DF93009752
:103C300089F4CB01DF91CF911F910F91FF90EF900D
:103C4000DF90CF90BF90AF909F908F907F906F90BC
:103C50000C94E81CFC01E60FF71F9C01225031096F
:103C6000E217F30708F4A9C0EC01D9010D911C91EA
:103C7000119706171707B0F00530110508F49BC01F
:103C8000C80104978617970708F495C002501109D8
:103C9000061B170B019311936D937C93CF010E9428
:103CA000801D89C05B01A01AB10A4C01800E911ED3
:103CB000A0910503B0910603612C712CE12CF12C2D
:103CC000109709F446C08D919C911197A815B905DC
:103CD000B1F56C0142E0C40ED11CCA14DB0478F1CA
:103CE0004C018A189B08640142E0C40ED11C129654
:103CF000BC9012971396AC91B5E0CB16D10440F06E
:103D0000B282A38391828082D9016D937C9309C092
:103D10000E5F1F4F800F911FF90191838083EB2D60
:103D2000FA2FE114F10431F0D7011396FC93EE93CE
:103D3000129741C0F0930603E09305033CC0681658
:103D4000790608F43C017D0112960D90BC91A02DDE
:103D5000B7CF809103039091040388169906E1F48C
:103D600066167706C8F480910201909103010097CE
:103D700041F48DB79EB74091060150910701841B15
:103D8000950BE817F907C8F4F0930403E0930303D5
:103D9000F901718360830FC0CB010E94E81C7C0194
:103DA000009759F0A801BE010E94FB1ECE010E949F
:103DB000801DC70104C0CE0102C080E090E0DF9109
:103DC000CF911F910F91FF90EF90DF90CF90BF9018
:103DD000AF909F908F907F906F900895FB01DC01D2
:103DE00004C08D910190801921F441505040C8F7D2
:103DF000881B990B0895FB01DC0102C001900D9214
:0C3E000041505040D8F70895F894FFCFCF
:103E0C000A0200000703200056732E42617465728B
:103E1C0065203C20362E35560049736920556C615F
:103E2C006E672042617465726500496E6974204446
:103E3C004D502053656C65736169004B616C696210
:103E4C00726173692053656E736F720053656C6594
:103E5C00736169203E3E3E3E3E3E3E3E00446968F4
:103E6C00656E74696B616E203E3E3E3E3E00322EA6
:103E7C005761726E612048696A6175203E3E00543C
:103E8C00656B616E20546F6D626F6C20313C3C0031
:103E9C00312E5761726E61204D65726168203E3E15
:103EAC0000332E5761726E612042697275203E3E5E
:103EBC003E00342E5761726E6120486974616D202A
:103ECC003E3E004D657261682D48696A61752D42F0
:103EDC0069727500322E5761726E6120426972757B
:103EEC0020203E3E00332E5761726E61204869746B
:103EFC00616D203E3E3E00204D657261682064611C
:103F0C006E20426972752000436865636B204861BE
:103F1C00726477617265212100494D5520496E69A3
:103F2C0074204661696C203E3E00546567616E6783
:103F3C00616E204261746572653A0020566F6C7434
:103F4C0000494D5520496E6974204F4B203E3E3E32
:103F5C003E004D50553630353020496E6974204442
:103F6C004D5000436F756E74696E67203A200042A5
:103F7C00616C616E63696E672053746172742E009C
:00000001FF
