:100000000C9447000C9476000C9476000C947600C7
:100010000C9476000C9476000C9476000C944D05AC
:100020000C9474050C94E3050C9476000C94BD05B7
:100030000C9476000C9476000C94D8050C94760001
:100040000C9476000C9476000C9476000C94760058
:100050000C9476000C9476000C9476000C94760048
:100060000C9476000C9476000C9476000C94760038
:100070000C949B050C9476000C9486000C947600EE
:100080000C9476000C9476000C9476007A07112478
:100090001FBECFEFD0E1DEBFCDBF12E0A0E0B1E0E8
:1000A000ECECFFE000E00BBF02C007900D92A2381D
:1000B000B107D9F722E0A2E8B2E001C01D92A53B4A
:1000C000B207E1F710E0CEE8D0E000E006C02297EA
:1000D0000109FE010BBF0E94E007CC38D10780E088
:1000E0000807A9F70E94E0060C94E4070C940000AE
:1000F000689420F8DB9A0895EFE9FFE03197F1F773
:1001000000C0000001970097B9F708951F920F9261
:100110000FB60F9211240BB60F928F93EF93FF93AC
:10012000CF93DF9300D0CDB7DEB780919B008A8359
:1001300080919C0089838A818C71E1F4E0919E0218
:10014000F0E08981E156FD4F808380919E028F5FB0
:1001500080939E02803111F410929E0280919C0245
:100160008F5F80939C02803129F410929C0281E081
:1001700080939B020F900F90DF91CF91FF91EF91B1
:100180008F910F900BBE0F900FBE0F901F90189580
:100190008CED95E09BBD8ABD99BD88BD909379009B
:1001A000809378000895FC011092850010928400DD
:1001B00010928700109286001082118212821382A0
:1001C000089577FF09C07195619571097093850055
:1001D000609384001D9805C070938500609384002F
:1001E0001D9A57FF09C051954195510950938700B9
:1001F000409386001A980895509387004093860094
:100200001A9A089513BE10BEC4980895AB014D57B5
:10021000510944395642C0F5683E83E0780758F0EA
:100220008BE183BF12BE9B0140E050E060E970EDBE
:1002300083E090E01CC0643F21E0720758F08CE13D
:1002400083BF12BE9B0140E050E068E478EE81E09D
:1002500090E00DC06A3F710570F08DE183BF12BE62
:100260009B0140E050E06CEA77E081E090E00E9482
:10027000BE0721BF08958EE183BF12BE86ED93E8CD
:100280000E94960761BF08950C9402010F931F937B
:10029000CF93DF93EC018A010E940601C8010E94FE
:1002A0007C00CE01DF91CF911F910F910C94020140
:1002B000CF93DF93EC0148EC50E068EE73E00E94CE
:1002C000460142E350E064EF71E0CE010E94460136
:1002D00044E650E068EB7BE0CE010E94460142E339
:1002E00050E064EF71E0CE010E94460148EC50E01E
:1002F00068EB7BE0CE010E94460142E350E064EFF0
:1003000071E0CE010E94460144E650E060ED77E0E6
:10031000CE01DF91CF910C944601607F64606BBB8E
:1003200085E08A95F1F70000DA980895D898862F2D
:10033000807F20FE02C08C6001C084608BBB85E0A2
:100340008A95F1F70000DA989AE19A95F1F700C0E2
:1003500070E0E4E0660F771FEA95E1F720FE02C047
:100360006C6001C064606BBB85E08A95F1F70000AA
:10037000DA988FEE9AE00197F1F700C00000DA9A60
:100380000895D89A862F807F20FE02C08D6001C01C
:1003900085608BBB85E08A95F1F70000DA988AE1E9
:1003A0008A95F1F700C070E0F4E0660F771FFA95C8
:1003B000E1F720FE02C06D6001C065606BBB85E0A7
:1003C0008A95F1F70000DA9885ED8A95F1F700003B
:1003D000DA9A0895CF93DF93EC012FEF80E792E054
:1003E000215080409040E1F700C0000060E3CE0162
:1003F0000E948D018FE19EE40197F1F700C000009B
:1004000060E3CE010E948D018FE99FE00197F1F733
:1004100000C0000060E3CE010E948D018FE99FE0E3
:100420000197F1F700C0000060E2CE010E948D014B
:1004300068E2CE010E94960160E1CE010E94960121
:1004400066E0CE010E9496016CE0CE010E9496010A
:1004500061E0CE010E9496018FE39FE10197F1F7E1
:1004600000C00000DF91CF910895411102C0605893
:1004700001C060540C9496010F931F93CF93DF93A8
:100480008C01EB016991662321F0C8010E94C10132
:10049000F9CFDF91CF911F910F9108950F931F9383
:1004A000CF93DF93EC018A01462F60E00E94350272
:1004B000B801CE01DF91CF911F910F910C943C02B6
:1004C00061E00E9496018FE39FE10197F1F700C080
:1004D000000008951F93CF93DF93EC01462F60E057
:1004E0000E94350210E160E2CE010E94C10111506C
:1004F000D1F7DF91CF911F9108951F93CF93DF9391
:10050000EC01462F60E00E94350210E160E2CE016E
:100510000E94C1012FE788E391E021508040904084
:10052000E1F700C00000115089F7DF91CF911F91D2
:1005300008950F931F93CF93DF93EC01162F12951D
:10054000110F110F107C10580FE0602F610FCE01BA
:100550000E94960160E2CE010E94C1012FE788E36C
:1005600091E0215080409040E1F700C00000015030
:1005700060F7DF91CF911F910F910895FF920F9334
:100580001F93CF93DF93EC01162F1295110F110FCC
:10059000107C105807E0AFE0FA2EF10E602F610FCB
:1005A000CE010E94960160E2CE010E94C1012FE7B8
:1005B00088E391E0215080409040E1F700C00000C6
:1005C0006F2D601BCE010E94960160E2CE010E9459
:1005D000C1012FE788E391E0215080409040E1F78E
:1005E00000C000000150D0F6DF91CF911F910F9114
:1005F000FF900895FF920F931F93CF93DF93EC0129
:10060000162F1295110F110F107C105800E0BFE04B
:10061000FB2EF10E602F610FCE010E94960160E269
:10062000CE010E94C1012FE788E391E02150804074
:100630009040E1F700C000006F2D601BCE010E94CA
:10064000960160E2CE010E94C1012FE788E391E0AC
:10065000215080409040E1F700C000000F5F08305B
:10066000C9F6DF91CF911F910F91FF900895CF921E
:10067000DF92FF920F931F93CF93DF931F92CDB71B
:10068000DEB78C01F42E462F60E059830E943502BC
:10069000CF2C5981D52EF12CF60161916F01C80143
:1006A0000E94C101FFE728E381E0F1502040804033
:1006B000E1F700C00000F39490E1F912EDCF0F9044
:1006C000DF91CF911F910F91FF90DF90CF90089510
:1006D000EF92FF920F931F93CF93DF9300D0CDB78C
:1006E000DEB78C01262F7A012295220F220F207C63
:1006F000205840E1E40EF11C3FE0632F620FC80177
:1007000029833A830E949601F70162917F01C80113
:100710000E94C101FFE748E381E0F1504040804082
:10072000E1F700C000003A81315029813F3F29F7AD
:100730000F900F90DF91CF911F910F91FF90EF904D
:100740000895AF92BF92CF92DF92EF92FF920F93F4
:100750001F93CF93DF931F92CDB7DEB78C01262F67
:100760005A012295220F220F207C205838E0A30E38
:10077000B11C750187E0D82E9FE0C92EC20E6D2DE9
:10078000620FC80129830E949601F50162915F0101
:10079000C8010E94C101FFE738E381E0F150304019
:1007A0008040E1F700C000006C2D6D19C8010E9467
:1007B0009601F70161917F01C8010E94C101FFE725
:1007C00038E381E0F15030408040E1F700C00000A4
:1007D000DA9429819FEFD912D2CF0F90DF91CF9178
:1007E0001F910F91FF90EF90DF90CF90BF90AF904F
:1007F0000895AF92BF92CF92DF92EF92FF920F9344
:100800001F93CF93DF931F92CDB7DEB78C01629514
:10081000660F660F607C60585A012FE0D22ED60E0C
:100820007A0130E1E30EF11C37E0C32EC60E262F0D
:10083000220F215F622F6D19C80129830E94960142
:10084000F50161915F01C8010E94C101FFE738E332
:1008500081E0F15030408040E1F700C000006D2D94
:10086000C8010E949601F70162917F01C8010E94B0
:10087000C101FFE738E381E0F15030408040E1F70B
:1008800000C00000DA942981DC10D4CF0F90DF91F2
:10089000CF911F910F91FF90EF90DF90CF90BF907D
:1008A000AF900895FF920F931F93CF93DF93EC01C6
:1008B000062F862F64E60E948A07F92E60E3680FF0
:1008C000CE010E94C1011AE08F2D612F0E948A077C
:1008D000805D682FCE010E94C101802F612F0E9490
:1008E0008A07905D692FCE01DF91CF911F910F9103
:1008F000FF900C94C1010F931F93CF93DF93EC01F2
:10090000162F67FF06C011956DE20E94C10100E03D
:1009100001C001E0612FCE010E945204002349F082
:1009200060E280E992E0DF91CF911F910F910C94EA
:10093000C101DF91CF911F910F910895EF92FF9226
:100940000F931F93CF93DF938C01C7E0D0E0E62E87
:10095000F12CC7010C2E02C0959587950A94E2F7F9
:1009600080FD02C060E301C061E3C8010E94C101D3
:10097000219778F7DF91CF911F910F91FF90EF9022
:10098000089561110C947800E89420F8DB9808959C
:10099000689422F8606267B985E38A95F1F70000F0
:1009A000369A349BFECF349AE89422F885B10895A4
:1009B00022FCFFCF60E00E94C8042EE5829FC001A8
:1009C000112463E170E00E94AA07CB01089522FC84
:1009D00054C060E00E94C804833808F04EC0F89408
:1009E00040E050E060E070E082E992E00E94E100C7
:1009F00080E992E00E94600242E051E060E080E91C
:100A000092E00E944E0243E151E061E080E992E011
:100A10000E944E0244E650E060ED77E081E992E00A
:100A20000E9446012FEF81EE94E0215080409040DB
:100A3000E1F700C0000044E650E060ED77E081E9B6
:100A400092E00E9446012FEF85EA9EE0215080400F
:100A50009040E1F700C000000E9478002FEF89E687
:100A600098E1215080409040E1F700C0000060E034
:100A700080E992E00E94C104CDCF0895FC01138269
:100A800081E084838583808186608160808384E6C1
:100A900090E097838683108608951F920F920FB679
:100AA0000F9211248F939F938091960290919702B9
:100AB0000E9B03C0B09B03C005C0B09B03C0F8945D
:100AC000019602C0F8940197909397028093960242
:100AD000809194028F5F809394029F918F910F90E9
:100AE0000FBE0F901F9018951F920F920FB60F9286
:100AF00011248F939F9380919802909199020F9B5C
:100B000003C0B29B03C005C0B29B03C0F894019719
:100B100002C0F89401969093990280939802809174
:100B200095028F5F809395029F918F910F900FBEDA
:100B30000F901F9018951F920F920FB60F921124CD
:100B40002F938F939F938091B1029091B20201965F
:100B5000893E23E0920728F49093B2028093B10279
:100B600004C01092B2021092B1029F918F912F9106
:100B70000F900FBE0F901F9018951F920F920FB6F7
:100B80000F9211248F938091010181508093010174
:100B9000811105C085E0809301018AEA01C082E0ED
:100BA0008FBD78948F910F900FBE0F901F90189566
:100BB0001F920F920FB60F92112478940F900FBED0
:100BC0000F901F9018951F920F920FB60F9211243D
:100BD0002F938F939F93789480910001815009F413
:100BE0008AE08093000180910001843069F08930AF
:100BF000A9F4809194029091B002282F291B209390
:100C000092028093B0020AC0809195029091AF0247
:100C1000282F291B209393028093AF029F918F91DD
:100C20002F910F900FBE0F901F901895EF92FF928B
:100C30000F931F93CF93DF93E89420F8E89421F863
:100C4000E89422F81BBA8FEF8ABB95E098BB98EF27
:100C500097BB85BB90EF94BB12BA91BB20EC23B934
:100C60009CE392B91092620010926100809365003B
:100C70001092640010BE13BE12BE11BE8AEA8FBD70
:100C800082E18EBD1DBC1CBC80EA9FE097BD86BD85
:100C90008BE085BD14BC8AEF83BD82EF80938B000F
:100CA00081E180938A00109289001092880081E08F
:100CB0008093810080E980938000109287001092D9
:100CC000860010928500109284001092830088ECB8
:100CD0008093820010926A0080E58ABF29BF28BFF6
:100CE00084EA87BF82E080937D0010929B0088E9B0
:100CF00080939A0086E080939D001092980087E68A
:100D00008093990080E888B910BCF89480E992E05B
:100D10000E94EA010E94780041EF51E060E080E922
:100D200092E00E944E0260EC80E992E00E949601FF
:100D30008FE892E00E94D8048C0164E670E00E9483
:100D4000AA077C01605D80E992E00E94C1016EE229
:100D500080E992E00E94C101CAE0D0E0C701BE0173
:100D60000E94AA07605D80E992E00E94C101C8016B
:100D7000BE010E94AA0760E3680F80E992E00E942A
:100D8000C10162E072E080E992E00E943C0281E9E8
:100D900092E00E9458012FEF83EC99E021508040AF
:100DA0009040E1F700C000008FE892E00E94E70465
:100DB0007894DF91CF911F910F91FF90EF9008955C
:100DC0000E94160680E992E00E94600248E052E02C
:100DD00060E080E992E00E94A10349E152E061E015
:100DE00080E992E00E94F9032FEF83ED90E3215018
:100DF00080409040E1F700C0000060E080E992E0B0
:100E00000E947D0261E080E992E00E9499024AE23C
:100E100052E060E080E992E00E9437034BE352E049
:100E200061E080E992E00E9468032FEF83ED90E398
:100E3000215080409040E1F700C0000060E080E970
:100E400092E00E94FA0261E080E992E00E94BE0214
:100E50004CE452E060E080E992E00E944E024DE5F1
:100E600052E061E080E992E00E944E022FEF83EDB4
:100E700090E3215080409040E1F700C0000060E026
:100E800080E992E00E946A0261E080E992E00E94BB
:100E90006A024EE652E060E080E992E00E944E0273
:100EA00049E752E061E080E992E00E944E02C3E827
:100EB0006BE880E992E00E9496016C2F80E992E055
:100EC0000E947B0468EC80E992E00E9496016C2FFE
:100ED00080E992E00E949E04CF5FCE370CF0C3E819
:100EE0002FEF81EE94E0215080409040E1F700C068
:100EF0000000DECF8AE992E00E94C80082E992E019
:100F00000E94D30080E287B984E886B984E892E041
:100F10000C943E05991B79E004C0991F961708F0C0
:100F2000961B881F7A95C9F780950895AA1BBB1B4D
:100F300051E107C0AA1FBB1FA617B70710F0A61BD9
:100F4000B70B881F991F5A95A9F780959095BC01FA
:100F5000CD01089597FB072E16F4009407D077FD76
:100F600009D00E94960707FC05D03EF49095819524
:100F70009F4F0895709561957F4F0895A1E21A2EB5
:100F8000AA1BBB1BFD010DC0AA1FBB1FEE1FFF1F2D
:100F9000A217B307E407F50720F0A21BB30BE40B7D
:100FA000F50B661F771F881F991F1A9469F76095C4
:100FB0007095809590959B01AC01BD01CF0108957E
:0C0FC0000790F691E02D0994F894FFCF03
:100FCC000A0556732E426174657265203C20362EDC
:100FDC0035560049736920556C616E672042617407
:100FEC00657265004B616C6962726173692053654F
:100FFC006E736F720053656C65736169203E3E3E83
:10100C003E3E3E3E3E00446968656E74696B616E9F
:10101C00203E3E3E3E3E004D657261682D48696A39
:10102C0061752D4269727500312E5761726E6120A7
:10103C004D65726168203E3E0054656B616E2054B4
:10104C006F6D626F6C20313C3C00322E5761726EBA
:10105C00612048696A6175203E3E00332E576172EB
:10106C006E612042697275203E3E3E00342E5761FF
:10107C00726E6120486974616D203E3E00204D65A2
:10108C007261682064616E20426972752000322E94
:10109C005761726E61204269727520203E3E0033AA
:1010AC002E5761726E6120486974616D203E3E3E20
:1010BC0000546567616E67616E204261746572658C
:1010CC003A0020566F6C740050726F6772616D201D
:1010DC004C43442054657874003E3E3E3E3E3E3EBA
:1010EC003E3C3C3C3C3C3C3C3C0054756C697320A5
:1010FC0064617269204B6972692E0054756C697356
:10110C002064617269204B616E616E0054756C696C
:10111C0073206B6520426172697320310054756CC9
:10112C006973206B652042617269732032004465DB
:10113C0073696D616C203D200042696E6572203DC3
:02114C00200081
:00000001FF
