:0C0000000C9459000C9400000C940000BB
:10000C000C9400000C9400000C9400000C94000064
:10001C000C9415010C9445010C947A010C9400007D
:10002C000C9479010C9400000C9400000C94780151
:10003C000C9400000C9400000C9400000C94000034
:10004C000C9400000C9400000C9400000C94000024
:10005C000C9400000C9400000C9400000C94000014
:10006C000C9400000C9400000C9400000C94000004
:10007C000C9400000C9400000C9400000C940000F4
:10008C000A004B656365706174616E204B613A00C8
:10009C004B656365706174616E204B693A000100B9
:1000AC000A058C000000F894EE27ECBBF1E0F5BFDC
:1000BC00E5BFE0936C00F8E1F1BDE1BD8DE0A2E09D
:1000CC00BB27ED938A95E9F780E090E1A0E0B1E0E1
:1000DC00ED930197E9F7EAEAF0E0859195910097A5
:1000EC0061F0A591B59105901590BF01F0010590B7
:1000FC000D920197E1F7FB01F0CF8BBFEFEFEDBF56
:10010C00E0E1EEBFC0E0D5E00C941D02AA93E881BB
:10011C00E07FE46081D21BC0AA93D898E881E07F8D
:10012C00EC607AD27FD2EC6077D280EF9AE00197C4
:10013C00F1F70CC0AA93D89AE881E07FED606CD2FD
:10014C0071D2ED6069D285ED8A95F1F7DA9A219634
:10015C000895A2E36ED2A5E06CD2A1E06AD2A1E030
:10016C00B0E00E943403A0E2D1DFA8E2D5DFA0E129
:10017C00D3DFACE0D1DFA6E0CFDFA1E0CDDF089587
:10018C00AA931A93E981E03019F4AA81A05802C00D
:10019C00AA81A054C1DF18811BC0BA93AA93E8812D
:1001AC00F981E491E03051F0E881F981A491C2DF4A
:1001BC00E881F9813196E883F983F1CF2EC0BA93A7
:1001CC00AA93E0E0EA93AB81DBDFA881B981E5DF9C
:1001DC0023960895BA93AA93A981AA2352F4E8818D
:1001EC00F981AFEFBFEF0E944F03E883F983ADE2D3
:1001FC00A1DFA881B981E4E6F0E020D2E4E6F0E0EA
:10020C000E946C03DF01EAE0F0E018D2EAE0F0E0D3
:10021C000E946C03E05DAE2F8DDF22960895EA9369
:10022C00FA93EFB7EA930E9B02C0E1E001C0E0E065
:10023C00E03081F0B09B02C0E1E001C0E0E0E030D2
:10024C0021F0F894F201319703C0F894F201319641
:10025C002F0110C0B09B02C0E1E001C0E0E0E03033
:10026C0029F0F894F20131962F0104C0F894F301AF
:10027C0031973F017894F40131964F012EC0EA93E7
:10028C00FA93EFB7EA930F9B02C0E1E001C0E0E004
:10029C00E03081F0B29B02C0E1E001C0E0E0E03070
:1002AC0021F0F894F301319603C0F894F3013197DF
:1002BC003F010FC0B29B02C0E1E001C0E0E0E030C2
:1002CC0021F0F894F301319703C0F894F3013196BF
:1002DC003F017894F50131965F01E991EFBFF991F7
:1002EC00E9911895189518950A921A92FA926A93B0
:1002FC007A938A939A93AA93BA93EA93FA93EFB761
:10030C00EA937894E0910A05E150E0930A05E03015
:10031C0019F4EAE0E0930A05E0910A05F0E0E9300F
:10032C00A0E0FA07B1F4E0910805D401F0E0EA1777
:10033C00FB0728F4A0910805E82DEA1B06C0A09144
:10034C000805EFEFEA1BE80DEF5FDE2E8092080543
:10035C0023C0E830A0E0FA07F9F0E430A0E0FA0797
:10036C00B1F4E0910905D501F0E0EA17FB0728F498
:10037C00A0910905EA2DEA1B06C0A0910905EFEF33
:10038C00EA1BEA0DEF5FCE2EA092090505C0E33003
:10039C00A0E0FA0709F4E4D0E0910605F091070516
:1003AC00309741F4E0E0E0930005E0930105E09321
:1003BC0085000AC0E2E1F0E0E0930005F09301054E
:1003CC00E1E0E0938500E0E9E0938400A4E0B5E08F
:1003DC00ED91FD913196FE93EE933197E53FA1E0BF
:1003EC00FA07B8F0E0910605F0910705309739F45B
:1003FC00E1E0F0E0E0930605F093070505C0E0E0CE
:10040C00E0930605E0930705E0E0E0930405E09334
:10041C000505E991EFBFF991E991B991A9919991EC
:10042C00899179916991F990199009901895E0E06A
:10043C00EBBBEFEFEABBE5E0E8BBE8EFE7BBEFE0D7
:10044C00E5BBE0EFE4BBE0E0E2BBE0EFE1BBE0ECFE
:10045C00E3B9ECE3E2B9E0E0E0936200E093610021
:10046C00EFE0E0936500E0E0E0936400E0BFECE1D6
:10047C00E3BFE0E0E2BFE1BFE8EAEFBDE2E1EEBDE1
:10048C00E0E0EDBDECBDE3E1E7BDE7E8E6BDE0E0B3
:10049C00EBBDEABDE9BDE8BDE0937900E0937800DF
:1004AC00EBE0E5BDE0E0E4BDE9EFE3BDE2EFE093B6
:1004BC008B00E1E1E0938A00E0E0E0938900E093B7
:1004CC008800E1E0E0938100E0E9E0938000BED099
:1004DC00E0938600E0E0E0938500E0938400E093F5
:1004EC008300E8ECE0938200E0E0E0936A00E0E552
:1004FC00EABFE0ECE9BFE8BFE4EAE7BFE0E0E09385
:10050C007D00EAB9E0939A00E0E8E8B9E0E0E0BDEC
:10051C00E6B9EDB9E093740078941BDEE2E0F0E00C
:10052C00E0930005F0930105E0930205F0930305B9
:10053C00E0E0EA93AEE8B0E042DEE1E0EA93ACE959
:10054C00B0E03DDEEDE0EA93A0E01ADEAC2D82D007
:10055C00EDE0EA93A1E014DEAD2D7CD0F3CFFFCF1C
:10056C000E948C03A0910005B09101050E948803A4
:10057C0014F00C940603E0910005EC191E2FE12FEA
:10058C00A0910B05EA0FE0930B05A0910B05A93286
:10059C0014F0E8E205C0A0910B05A83D1CF4E8EDB1
:1005AC00E0930B05E0910C05E11B0E2FE8E0E10256
:1005BC00B001A0910B05EAE0EA02F001DB01AE0FFD
:1005CC00BF1FE1E0E002F001EA0FFB1F9F012139A0
:1005DC00E1E03E072CF0E1E0E0938700E0E90DC09C
:1005EC0000240216030644F4F9010E944203E0932E
:1005FC0087002093860003C029D0E093860008C0B2
:10060C0025D0E0938600E0E0E0930B05E0930C0529
:10061C000E94910324960895EBBB85E08A95F1F72F
:10062C00DA9808958BE18A95F1F7E881E295E07FFD
:10063C000895B0E00E943403A0E368CD0E946703E4
:10064C00E05DAE2F77DDA881B9810895E0E0E093FD
:10065C0087000895BB27BEDDA0E26CCD109639F063
:10066C0080EA9FE00197F1F7A8951197C9F70895D3
:10067C00F195E195F0400895EF2FFF27E7FDFFEF8F
:10068C000895FA9FF02DEB9FF00DEA9FE02DF10DF0
:10069C0008952AD0F6DF0EF4EBDF08950024112420
:1006AC0090E1AA0FBB1F001C111C0E1A1F0A18F494
:1006BC000E0E1F1E01C0A1609A9599F7FD01D00185
:1006CC00089512D0EBDF0EF4D3DF0895E894B7FF52
:1006DC0004C0A095B09511966894F7FDC9DFDEDFD4
:1006EC00FD010EF4C5DF0895E894F7FF02C0C0DFEA
:1006FC006894B7FF06C0A095B095119600F80394C6
:10070C0000FA089500240A160B0608953A932A93CA
:10071C001A930A9308953B812A81198108810895BF
:00000001FF
