:100000000C9447000C9476000C9476000C947600C7
:100010000C9476000C9476000C9476000C94CA0331
:100020000C94F1030C9460040C9476000C943A0444
:100030000C9476000C9476000C9455040C94760085
:100040000C9476000C9476000C9476000C94760058
:100050000C9476000C9476000C9476000C94760048
:100060000C9476000C9476000C9476000C94760038
:100070000C9418040C9476000C9486000C94760072
:100080000C9476000C9476000C947600F405112400
:100090001FBECFEFD0E1DEBFCDBF12E0A0E0B1E0E8
:1000A000E0ECFCE000E00BBF02C007900D92A8342A
:1000B000B107D9F722E0A8E4B2E001C01D92AB3746
:1000C000B207E1F710E0CEE8D0E000E006C02297EA
:1000D0000109FE010BBF0E945A06CC38D10780E00F
:1000E0000807A9F70E945D050C945E060C940000B9
:1000F000689420F8DB9A0895EFE9FFE03197F1F773
:1001000000C0000001970097B9F708951F920F9261
:100110000FB60F9211240BB60F928F93EF93FF93AC
:10012000CF93DF9300D0CDB7DEB780919B008A8359
:1001300080919C0089838A818C71E1F4E091640252
:10014000F0E08981EB59FD4F8083809164028F5FDD
:1001500080936402803111F41092640280916202F3
:100160008F5F80936202803129F41092620281E0F5
:10017000809361020F900F90DF91CF91FF91EF91EB
:100180008F910F900BBE0F900FBE0F901F90189580
:100190008CED95E09BBD8ABD99BD88BD909379009B
:1001A000809378000895FC011092850010928400DD
:1001B00010928700109286001082118212821382A0
:1001C000089577FF09C07195619571097093850055
:1001D000609384001D9805C070938500609384002F
:1001E0001D9A57FF09C051954195510950938700B9
:1001F000409386001A980895509387004093860094
:100200001A9A089513BE10BEC4980895AB014D57B5
:10021000510944395642C0F5683E83E0780758F0EA
:100220008BE183BF12BE9B0140E050E060E970EDBE
:1002300083E090E01CC0643F21E0720758F08CE13D
:1002400083BF12BE9B0140E050E068E478EE81E09D
:1002500090E00DC06A3F710570F08DE183BF12BE62
:100260009B0140E050E06CEA77E081E090E00E9482
:10027000380621BF08958EE183BF12BE86ED93E854
:100280000E94100661BF08950C9402010F931F9302
:10029000CF93DF93EC018A010E940601C8010E94FE
:1002A0007C00CE01DF91CF911F910F910C94020140
:1002B000CF93DF93EC0148EC50E068EE73E00E94CE
:1002C000460142E350E064EF71E0CE010E94460136
:1002D00044E650E068EB7BE0CE010E94460142E339
:1002E00050E064EF71E0CE010E94460148EC50E01E
:1002F00068EB7BE0CE010E94460142E350E064EFF0
:1003000071E0CE010E94460144E650E060ED77E0E6
:10031000CE01DF91CF910C944601607F64606BBB8E
:1003200085E08A95F1F70000DA980895D898862F2D
:10033000807F20FE02C08C6001C084608BBB85E0A2
:100340008A95F1F70000DA989AE19A95F1F700C0E2
:1003500070E0E4E0660F771FEA95E1F720FE02C047
:100360006C6001C064606BBB85E08A95F1F70000AA
:10037000DA988FEE9AE00197F1F700C00000DA9A60
:100380000895D89A862F807F20FE02C08D6001C01C
:1003900085608BBB85E08A95F1F70000DA988AE1E9
:1003A0008A95F1F700C070E0F4E0660F771FFA95C8
:1003B000E1F720FE02C06D6001C065606BBB85E0A7
:1003C0008A95F1F70000DA9885ED8A95F1F700003B
:1003D000DA9A0895CF93DF93EC012FEF80E792E054
:1003E000215080409040E1F700C0000060E3CE0162
:1003F0000E948D018FE19EE40197F1F700C000009B
:1004000060E3CE010E948D018FE99FE00197F1F733
:1004100000C0000060E3CE010E948D018FE99FE0E3
:100420000197F1F700C0000060E2CE010E948D014B
:1004300068E2CE010E94960160E1CE010E94960121
:1004400066E0CE010E9496016CE0CE010E9496010A
:1004500061E0CE010E9496018FE39FE10197F1F7E1
:1004600000C00000DF91CF910895411102C0605893
:1004700001C060540C9496010F931F93CF93DF93A8
:100480008C01EB016991662321F0C8010E94C10132
:10049000F9CFDF91CF911F910F9108950F931F9383
:1004A000CF93DF93EC018A01462F60E00E94350272
:1004B000B801CE01DF91CF911F910F910C943C02B6
:1004C00061E00E9496018FE39FE10197F1F700C080
:1004D000000008951F93CF93DF93EC01462F60E057
:1004E0000E94350210E160E2CE010E94C1012FE7B7
:1004F00088E391E0215080409040E1F700C0000087
:10050000115089F7DF91CF911F9108950F931F9399
:10051000CF93DF93EC01162F1295110F110F107C62
:1005200010580FE0602F610FCE010E94960160E22B
:10053000CE010E94C1012FE788E391E02150804065
:100540009040E1F700C00000015060F7DF91CF91CB
:100550001F910F910895CF92DF92FF920F931F93F7
:10056000CF93DF931F92CDB7DEB78C01F42E462FC9
:1005700060E059830E943502CF2C5981D52EF12C91
:10058000F60161916F01C8010E94C101FFE728E3F4
:1005900081E0F15020408040E1F700C00000F3947A
:1005A00090E1F912EDCF0F90DF91CF911F910F9154
:1005B000FF90DF90CF900895EF92FF920F931F93DB
:1005C000CF93DF9300D0CDB7DEB78C01262F7A0111
:1005D0002295220F220F207C205840E1E40EF11CCE
:1005E0003FE0632F620FC80129833A830E9496017E
:1005F000F70162917F01C8010E94C101FFE748E352
:1006000081E0F15040408040E1F700C000003A81B5
:10061000315029813F3F29F70F900F90DF91CF9103
:100620001F910F91FF90EF900895FF920F931F93EA
:10063000CF93DF93EC01062F862F64E60E94040619
:10064000F92E60E3680FCE010E94C1011AE08F2DE0
:10065000612F0E940406805D682FCE010E94C101B7
:10066000802F612F0E940406905D692FCE01DF91DB
:10067000CF911F910F91FF900C94C10161110C94C7
:100680007800E89420F8DB980895689422F8606276
:1006900067B985E38A95F1F70000369A349BFECF5F
:1006A000349AE89422F885B1089522FCFFCF60E0E7
:1006B0000E9445032EE5829FC001112463E170E092
:1006C0000E942406CB01089522FC54C060E00E94E1
:1006D0004503833808F04EC0F89440E050E060E0F5
:1006E00070E088E592E00E94E10086E592E00E94D9
:1006F000600242E051E060E086E592E00E944E0236
:1007000043E151E061E086E592E00E944E0244E65A
:1007100050E060ED77E087E592E00E9446012FEF20
:1007200081EE94E0215080409040E1F700C000004D
:1007300044E650E060ED77E087E592E00E944601F4
:100740002FEF85EA9EE0215080409040E1F700C005
:1007500000000E9478002FEF89E698E12150804048
:100760009040E1F700C0000060E086E592E00E9462
:100770003E03CDCF0895FC01138281E084838583FD
:10078000808186608160808384E690E097838683A1
:10079000108608951F920F920FB60F9211248F9317
:1007A0009F9380915C0290915D020E9B03C0B09B71
:1007B00003C005C0B09B03C0F894019602C0F89432
:1007C000019790935D0280935C0280915A028F5F43
:1007D00080935A029F918F910F900FBE0F901F90A0
:1007E00018951F920F920FB60F9211248F939F931B
:1007F00080915E0290915F020F9B03C0B29B03C089
:1008000005C0B29B03C0F894019702C0F89401960A
:1008100090935F0280935E0280915B028F5F809372
:100820005B029F918F910F900FBE0F901F901895B4
:100830001F920F920FB60F9211242F938F939F93B5
:1008400080917702909178020196893E23E0920789
:1008500028F4909378028093770204C01092780273
:10086000109277029F918F912F910F900FBE0F9052
:100870001F9018951F920F920FB60F9211248F930D
:1008800080910101815080930101811105C085E0B3
:10089000809301018AEA01C082E08FBD78948F9134
:1008A0000F900FBE0F901F9018951F920F920FB6CA
:1008B0000F92112478940F900FBE0F901F901895EF
:1008C0001F920F920FB60F9211242F938F939F9325
:1008D000789480910001815009F48AE080930001AE
:1008E00080910001843069F08930A9F480915A0226
:1008F00090917602282F291B20935802809376022C
:100900000AC080915B0290917502282F291B2093C9
:100910005902809375029F918F912F910F900FBE76
:100920000F901F901895EF92FF920F931F93CF9304
:10093000DF93E89420F8E89421F8E89422F81BBAB1
:100940008FEF8ABB95E098BB98EF97BB85BB90EF84
:1009500094BB12BA91BB20EC23B99CE392B91092DC
:10096000620010926100809365001092640010BED6
:1009700013BE12BE11BE8AEA8FBD82E18EBD1DBCC0
:100980001CBC80EA9FE097BD86BD8BE085BD14BC92
:100990008AEF83BD82EF80938B0081E180938A0090
:1009A000109289001092880081E08093810080E994
:1009B000809380001092870010928600109285002C
:1009C000109284001092830088EC80938200109231
:1009D0006A0080E58ABF29BF28BF84EA87BF82E01A
:1009E00080937D0010929B0088E980939A0086E0B6
:1009F00080939D001092980087E68093990080E88C
:100A000088B910BCF89486E592E00E94EA010E9441
:100A1000780041EF51E060E086E592E00E944E02EE
:100A200060EC86E592E00E94960185E592E00E94E6
:100A300055038C0164E670E00E9424067C01605D31
:100A400086E592E00E94C1016EE286E592E00E9496
:100A5000C101CAE0D0E0C701BE010E942406605D6A
:100A600086E592E00E94C101C801BE010E942406F1
:100A700060E3680F86E592E00E94C10162E072E0E7
:100A800086E592E00E943C0287E592E00E945801D0
:100A90002FEF83EC99E0215080409040E1F700C0B7
:100AA000000085E592E00E9464037894DF91CF9185
:100AB0001F910F91FF90EF9008950E94930486E597
:100AC00092E00E94600248E052E060E086E592E039
:100AD0000E94DC0249E152E061E086E592E00E947A
:100AE000AB022FEF83ED90E3215080409040E1F77F
:100AF00000C0000061E086E592E00E946A0260E0CA
:100B000086E592E00E9486024AE252E060E086E5D5
:100B100092E00E944E024BE352E061E086E592E0F3
:100B20000E944E0263E886E592E00E9496019B993E
:100B300002C061E301C060E386E592E00E94C1016A
:100B400067E886E592E00E9496019A9902C061E307
:100B500001C060E386E592E00E94C1016BE886E592
:100B600092E00E949601999902C061E301C060E39E
:100B700086E592E00E94C1016FE886E592E00E945E
:100B80009601989902C061E301C060E386E592E0B6
:100B90000E94C1016DEC86E592E00E949601609191
:100BA000630060956F7086E592E00E941503809166
:100BB000630083FD02C0AC9A01C0AC9880916300D1
:100BC00082FD02C0AD9A01C0AD988091630081FDA5
:100BD00002C0AE9A01C0AE988091630080FD02C051
:100BE000AF9AA0CFAF989ECF80E692E00E94C80057
:100BF00088E592E00E94D30080E287B984E886B954
:100C00008AE492E00C94BB03991B79E004C0991F1D
:100C1000961708F0961B881F7A95C9F78095089556
:100C2000AA1BBB1B51E107C0AA1FBB1FA617B70712
:100C300010F0A61BB70B881F991F5A95A9F780952E
:100C40009095BC01CD01089597FB072E16F40094F2
:100C500007D077FD09D00E94100607FC05D03EF4AE
:100C6000909581959F4F0895709561957F4F089558
:100C7000A1E21A2EAA1BBB1BFD010DC0AA1FBB1FA0
:100C8000EE1FFF1FA217B307E407F50720F0A21B12
:100C9000B30BE40BF50B661F771F881F991F1A947F
:100CA00069F760957095809590959B01AC01BD01A9
:100CB000CF0108950790F691E02D0994F894FFCFA5
:100CC0000A0556732E426174657265203C20362EEB
:100CD00035560049736920556C616E672042617416
:100CE000657265004B616C6962726173692053655E
:100CF0006E736F720053656C65736169203E3E3E92
:100D00003E3E3E3E3E00446968656E74696B616EAE
:100D1000203E3E3E3E3E004D657261682D48696A48
:100D200061752D4269727500312E5761726E6120B6
:100D30004D65726168203E3E0054656B616E2054C3
:100D40006F6D626F6C20313C3C00322E5761726EC9
:100D5000612048696A6175203E3E00332E576172FA
:100D60006E612042697275203E3E3E00342E57610E
:100D7000726E6120486974616D203E3E00204D65B1
:100D80007261682064616E20426972752000322EA3
:100D90005761726E61204269727520203E3E0033B9
:100DA0002E5761726E6120486974616D203E3E3E2F
:100DB00000546567616E67616E204261746572659B
:100DC0003A0020566F6C740050726F6772616D202C
:100DD0004C4344202B20494F003E3E3E3E3E3E3E8B
:100DE0003E3E3E3E3E3E3E3E3E0054313A20543270
:100DF0003A2054333A2054343A20004469705377EF
:080E000069746368203D2000C5
:00000001FF
