:020000000C945E
:1000020056000C9400000C9400000C9400000C9418
:1000120000000C9400000C9400000C941A010C9443
:100022004D010C94BD010C9400000C94BC010C9485
:1000320000000C9400000C94BB010C9400000C9482
:1000420000000C9400000C9400000C9400000C942E
:1000520000000C94BE010C9400000C9400000C945F
:1000620000000C9400000C9400000C9400000C940E
:1000720000000C9400000C9488010C9400000C9475
:1000820000000C9400000C9400000000456E6B2EE2
:100092004B616E616E3A00456E6B2E4B6972692040
:1000A2003A00010002008C000000F894EE27ECBB3D
:1000B200F1E0F5BFE5BFE0936C00F8E1F1BDE1BD11
:1000C2008DE0A2E0BB27ED938A95E9F780E090E10D
:1000D200A0E0B1E0ED930197E9F7E4EAF0E0859161
:1000E2009591009761F0A591B59105901590BF018A
:1000F200F00105900D920197E1F7FB01F0CF8BBF64
:10010200EFEFEDBFE0E1EEBFC0E0D5E00C94E4011B
:10011200AA93E881E07FE460FAD11BC0AA93D89841
:10012200E881E07FEC60F3D1F8D1EC60F0D180EFB0
:100132009AE00197F1F70CC0AA93D89AE881E07F80
:10014200ED60E5D1EAD1ED60E2D185ED8A95F1F776
:10015200DA9A21960895A2E3E7D1A5E0E5D1A1E0DC
:10016200E3D1A1E0B0E00E94A202A0E2D1DFA8E2C6
:10017200D5DFA0E1D3DFACE0D1DFA6E0CFDFA1E0A5
:10018200CDDF0895AA931A93E981E03019F4AA8188
:10019200A05802C0AA81A054C1DF18811BC0BA9323
:1001A200AA93E881F981E491E03051F0E881F98184
:1001B200A491C2DFE881F9813196E883F983F1CF16
:1001C20036C0BA93AA93E0E0EA93AB81DBDFA88161
:1001D200B981E5DF23960895BA93AA93A981AA2348
:1001E20052F4E881F981AFEFBFEF0E94B802E883D1
:1001F200F983ADE2A1DFA881B981E8EEF3E099D1FC
:10020200E8EEF3E00E94D502DF01E4E6F0E091D1EE
:10021200E4E6F0E00E94D502DF01EAE0F0E089D1F5
:10022200EAE0F0E00E94D502E05DAE2F85DF229683
:100232000895EA93FA93EFB7EA930E9B02C0E1E0C6
:1002420001C0E0E0E03081F0B09B02C0E1E001C01B
:10025200E0E0E03021F0F894F201319703C0F89425
:10026200F20131962F010FC0B09B02C0E1E001C044
:10027200E0E0E03021F0F894F201319603C0F89406
:10028200F20131972F017894F60131966F01E991CD
:10029200EFBFF991E9911895AA93BA93EA93FA9369
:1002A200EFB7EA930F9B02C0E1E001C0E0E0E0306B
:1002B20081F0B29B02C0E1E001C0E0E0E03021F059
:1002C200F894F301319603C0F894F30131973F019A
:1002D2000FC0B29B02C0E1E001C0E0E0E03021F0DB
:1002E200F894F301319703C0F894F30131963F017A
:1002F2007894A0E0B5E0ED91FD913196FE93EE93F6
:10030200E991EFBFF991E991B991A9911895AA9351
:10031200EA93FA93EFB7EA931A930A9310919B0028
:1003220000919C00E12FEC71E9F4E0910A05EF5F86
:10033200E0930A05E150F0E0EE5FFA4F0083A091EE
:100342000A05A83019F4E0E0E0930A05A0910C0533
:10035200AF5FA0930C05A83029F4E0E0E0930C0510
:10036200689420F809911991E991EFBFF991E99107
:10037200A99118951895189518958A93AA93BA93E6
:10038200EA93EFB7EA93A0911505B0E0A35FBA4FE5
:10039200E5B1EC93A0911505AF5FA0931505A830C8
:1003A20018F0E0E0E0931505E0911505E05EE7B98D
:1003B20085E38A95F1F7369AE991EFBFE991B99110
:1003C200A99189911895E0E0EBBBEFEFEABBE5E07C
:1003D200E8BBE8EFE7BBEFE0E5BBE0EFE4BBE0E062
:1003E200E2BBE0EFE1BBE0ECE3B9ECE3E2B9E0E071
:1003F200E0936200E0936100EFE0E0936500E0E0EB
:10040200E0936400E0BFECE1E3BFE0E0E2BFE1BF04
:10041200E8EAEFBDE2E1EEBDE0E0EDBDECBDE3E117
:10042200E7BDE7E8E6BDE0E0EBBDEABDE9BDE8BD5A
:10043200E0937900E0937800EBE0E5BDE0E0E4BD15
:10044200E9EFE3BDE2EFE0938B00E1E1E0938A00A4
:10045200E0E0E0938900E0938800E1E0E09381002E
:10046200E0E9E0938000E0E0E0938700E09386001B
:10047200E0938500E0938400E0938300E8ECE0934E
:100482008200E0E0E0936A00E0E5EABFE0ECE9BF69
:10049200E8BFE4EAE7BFE0E0E0937D00EAB9E09379
:1004A2009B00E8E9E0939A00E6E0E0939D00E0E03B
:1004B200E0939800E7E6E0939900E0E8E8B9E0E02D
:1004C200E0BDE0E2E7B9EFECE6B9E0E0EDB9E093D8
:1004D2007400789440DEE0E0EA93AEE8B0E071DECA
:1004E200E1E0EA93A9E9B0E06CDEEAE0EA93A0E099
:1004F20049DED30171DEA0E21FDEEAE0EA93A1E069
:1005020041DED20169DEA0E217DEEFCFFFCFEBBB07
:1005120085E08A95F1F7DA9808958BE18A95F1F7EB
:10052200E881E295E07F0895B0E00E94A202A0E394
:10053200EFCD0E94D002E05DAE2FFEDDA881B98131
:100542000895109639F080EA9FE00197F1F7A89597
:100552001197C9F70895F195E195F0400895FA9F32
:10056200F02DEB9FF00DEA9FE02DF10D08952AD0BA
:10057200F6DF0EF4F0DF08950024112490E1AA0FB3
:10058200BB1F001C111C0E1A1F0A18F40E0E1F1E90
:1005920001C0A1609A9599F7FD01D001089512D08A
:1005A200EBDF0EF4D8DF0895E894B7FF04C0A095FE
:1005B200B09511966894F7FDCEDFDEDFFD010EF4F3
:1005C200CADF0895E894F7FF02C0C5DF6894B7FF59
:1005D20006C0A095B095119600F8039400FA08950C
:00000001FF
