:0800000014C0FECFFDCFFCCFC0
:10000800FBCFFACF2BC0F8CFF7CFF6CFF5CFF4CF91
:10001800F3CFF2CFF1CFF0CFEFCFEECFEDCFECCFE4
:10002800EBCFF894EE27ECBBF1E0FBBFEBBFE5BFED
:10003800F8E1F1BDE1BD8DE0A2E0BB27ED938A9523
:10004800E9F780E092E0A0E6ED930197E9F7EFE5A4
:10005800EDBFE2E0EEBFC0EED0E006C0B69B02C046
:10006800C69801C0C69A1895E0E0EBBBEABBE8BBAE
:10007800EFEFE7BBE5BBE0E0E4BBE2BBE0E2E1BBFE
:10008800E0E0E3BFE2BFECBFE0E4EFBDE9E0EEBDD6
:10009800E0E0EDBDECBDE7BDE6BDE5E1EBBDE8E9BF
:1000A800EABDE0E0E9BDE8BDE2BDE5BDE4BDE3BD14
:1000B800E5BFE4BFE0E1E9BFE0E0EAB9E0E8E8B9BC
:1000C800E0E0E0BFE6B9EDB9E6BF7894FFCFFFCF37
:00000001FF
