:0600000014C0FECFFDCF8D
:10000600FCCFFBCFFACFF9CFF8CFF7CFF6CFF5CFAE
:10001600F4CFF3CFF2CFF1CFF0CFEFCFEECFEDCFDE
:10002600ECCFEBCFF894EE27ECBBF1E0FBBFEBBFD8
:10003600E5BFF8E1F1BDE1BD8DE0A2E0BB27ED93A0
:100046008A95E9F780E092E0A0E6ED930197E9F75B
:10005600EFE5EDBFE2E0EEBFC0EED0E078C0AA93D8
:10006600BFD073C0AA93C398BBD0C3D0E460C8D036
:100076008FE897E00197F1F7C29A67C0AA93C39AEF
:10008600E881E07FEC60BCD0B4D0EC60B9D083E905
:100096008A95F1F7C29A59C0A2E3B8D0A5E0B6D0C6
:1000A600A1E0B4D0B7D0A0E2DADFA8E2DBDFA0E1BE
:1000B600D9DFACE0D7DFA6E0D5DF0EC0AA931A934E
:1000C600E981E03019F4AA81A05802C0AA81A0549F
:1000D600C9DF188123960895A1E0C4DF9BD0089557
:1000E600BA93AA93A981AA234AF4E881F981AFEFCA
:1000F600BFEFB5D0E883F983ADE2C0DF8ED092D0F2
:100106008CD0CAD0DF01E4E6F0E08CD0A881B981BA
:10011600E4E6F0E0C1D0DF01EAE0F0E083D0A881B8
:10012600B981EAE0F0E0B8D0E05DAE2FA7DF229615
:100136000895AA93E881E7B985E28A95F1F7369A98
:10014600349BFECF349AE4B1F5B121960895E0E0F0
:10015600EBBBEABBE8BBEFEFE7BBE5BBE0E0E4BB2C
:10016600E2BBE1BBE3BFE2BFECBFEFBDEEBDEDBD61
:10017600ECBDE7BDE6BDEBBDEABDE9BDE8BDE2BD50
:10018600E5BDE4BDE3BDE5BFE4BFE9BFEAB9E0E82C
:10019600E8B9E0E0E0BFE7B9E7E8E6B9E0B7EF7E47
:1001A600E0BFE0E0EDB9E6BF77DF96DFE0E0EA9397
:1001B600A0E084DFA0E03AD0E7E0EA93A0E07EDFAB
:1001C600A1E034D0E0E0EA93A1E078DFA2E02ED00F
:1001D600E7E0EA93A1E072DFA3E028D0E7CFFFCF04
:1001E600E881E07FE460E8BB84E08A95F1F7C29895
:1001F600089582E18A95F1F7E881E295E07F089516
:10020600E8BB84E08A95F1F7C2980895B0E011D072
:10021600A0E325CFA1E0B0E00CC0A881B981E8EE4B
:10022600F3E0089534D0E05DAE2F28CF82DFDF0102
:1002360057CF109639F08DEC9AE00197F1F7A89513
:100246001197C9F70895F195E195F0400895FA9F41
:10025600F02DEB9FF00DEA9FE02DF10D08952AD0C9
:10026600F6DF0EF4F0DF08950024112490E1AA0FC2
:10027600BB1F001C111C0E1A1F0A18F40E0E1F1E9F
:1002860001C0A1609A9599F7FD01D001089512D099
:10029600EBDF0EF4D8DF0895E894B7FF04C0A0950D
:1002A600B09511966894F7FDCEDFDEDFFD010EF402
:1002B600CADF0895E894F7FF02C0C5DF6894B7FF68
:1002C60006C0A095B095119600F8039400FA08951B
:00000001FF
