:0C00000014C0FECFFDCFFCCFFBCFFACF29
:10000C00F9CFF8CFF7CFF6CFF5CFF4CFF3CFF2CFC0
:10001C00F1CFF0CFEFCFEECFEDCFECCFEBCFF8941D
:10002C00EE27ECBBF1E0FBBFEBBFE5BFF8E1F1BDA8
:10003C00E1BD8DE0A2E0BB27ED938A95E9F780E066
:10004C0092E0A0E6ED930197E9F7EFE5EDBFE2E072
:10005C00EEBFC0EED0E063C0AA93B3D05EC0AA934B
:10006C00C398AFD0B7D0E460BCD08FE897E00197CD
:10007C00F1F7C29A52C0AA93C39AE881E07FEC6070
:10008C00B0D0A8D0EC60ADD083E98A95F1F7C29AD4
:10009C0044C0A2E3ACD0A5E0AAD0A1E0A8D0ABD0DC
:1000AC00A0E2DADFA8E2DBDFA0E1D9DFACE0D7DF4A
:1000BC00A6E0D5DF0EC0AA931A93E981E03019F4BB
:1000CC00AA81A05802C0AA81A054C9DF1881239626
:1000DC000895A1E0C4DF8FD00895AA93A881B0E061
:1000EC00E4E6F0E08BD0E4E6F0E0BED0DF01EAE03D
:1000FC00F0E084D0EAE0F0E0B7D0E05DAE2FBBDFFB
:10010C000CC0AA93E881E062E7B985E28A95F1F721
:10011C00369A349BFECF349AE5B121960895E0E0EF
:10012C00EBBBEABBE8BBEFEFE7BBE5BBE0E0E4BB56
:10013C00E2BBE1BBE3BFE2BFECBFEFBDEEBDEDBD8B
:10014C00ECBDE7BDE6BDEBBDEABDE9BDE8BDE2BD7A
:10015C00E5BDE4BDE3BDE5BFE4BFE9BFEAB9E0E856
:10016C00E8B9E0E0E0BFE0E2E7B9E7E8E6B9E0B71C
:10017C00EF7EE0BFE0E0EDB9E6BF8BDFAADFE0E0A9
:10018C0044D0A7E045D0E5E040D0A6E041D0E9E07E
:10019C003CD0A5E03DD0EDE038D0A4E039D0E0E093
:1001AC003AD0A3E035D0E5E036D0A2E031D0E9E09A
:1001BC0032D0A1E02DD0EDE02ED0A0E029D0DFCFC1
:1001CC00FFCFE881E07FE460E8BB84E08A95F1F73B
:1001DC00C298089582E18A95F1F7E881E295E07F73
:1001EC000895E8BB84E08A95F1F7C2980895B0E0D1
:1001FC0015D0A0E331CFA1E0B0E010C030D0E05D6D
:10020C00AE2F39DFA881BB270895EA93A0E053CF26
:10021C0078DFAE2F62CFEA93A1E04DCF109639F084
:10022C008DEC9AE00197F1F7A8951197C9F708950D
:10023C00F195E195F04008950024112490E1AA0F66
:10024C00BB1F001C111C0E1A1F0A18F40E0E1F1EC9
:10025C0001C0A1609A9599F7FD01D001089512D0C3
:10026C00EBDF0EF4E5DF0895E894B7FF04C0A0952A
:10027C00B09511966894F7FDDBDFDEDFFD010EF41F
:10028C00D7DF0895E894F7FF02C0D2DF6894B7FF78
:10029C0006C0A095B095119600F8039400FA089545
:00000001FF
