:100000000C944E000C9400000C9400000C94000022
:100010000C9400000C9400000C9400000C94DC0084
:100020000C94DD000C9404010C9400000C9403016A
:100030000C9400000C9400000C9400000C94000040
:100040000C9400000C9400000C9400000C94000030
:100050000C9400000C9405010C9400000C9400001A
:100060000C9400000C9400000C9400000C94000010
:100070000C9400000C9400000C94DE000C94000022
:100080000C9400000C9400000C940000000020630D
:100090006D202000010002008C000000F894EE2783
:1000A000ECBBF1E0F5BFE5BFE0936C00F8E1F1BD1A
:1000B000E1BD8DE0A2E0BB27ED938A95E9F780E0F2
:1000C00090E1A0E0B1E0ED930197E9F7E4E9F0E019
:1000D00085919591009761F0A591B5910590159046
:1000E000BF01F00105900D920197E1F7FB01F0CF00
:1000F0008BBFEFEFEDBFE0E1EEBFC0E0D5E00C94C9
:100100002B01AA93E881E07FE46036D11BC0AA935B
:10011000D898E881E07FEC602FD134D1EC602CD10D
:1001200080EF9AE00197F1F70CC0AA93D89AE88182
:10013000E07FED6021D126D1ED601ED185ED8A955D
:10014000F1F7DA9A21960895A2E323D1A5E021D10F
:10015000A1E01FD1A1E0B0E00E94CE01A0E2D1DF7A
:10016000A8E2D5DFA0E1D3DFACE0D1DFA6E0CFDFAE
:10017000A1E0CDDF0895AA931A93E981E03019F444
:10018000AA81A05802C0AA81A054C1DF1881239679
:100190000895BA93AA93E881F981E491E03051F08F
:1001A000E881F981A491C1DFE881F9813196E88382
:1001B000F983F1CF2296089518951895EA93FA934A
:1001C000EFB7EA931A930A9310919B0000919C0059
:1001D000E12FEC7189F4E92D9394F0E0E050FB4FAE
:1001E0000083E8E0E91509F49924B394E8E0EB15FD
:1001F00019F4BB24689420F809911991E991EFBF93
:10020000F991E9911895189518958A93AA93BA933C
:10021000EA93EFB7EA93A0911005B0E0A85FBA4F58
:10022000E5B1EC93A0911005AF5FA0931005A83045
:1002300018F0E0E0E0931005E0911005E05EE7B90A
:1002400085E38A95F1F7369AE991EFBFE991B99183
:10025000A99189911895E0E0EBBBEFEFEABBE5E0EF
:10026000E8BBE8EFE7BBEFE0E5BBE0EFE4BBE0E0D5
:10027000E2BBE0EFE1BBE0ECE3B9ECE3E2B9E0E0E4
:10028000E0936200E0936100EFE0E0936500E0E05E
:10029000E0936400E0BFECE1E3BFE0E0E2BFE1BF78
:1002A000E8EAEFBDE2E1EEBDE0E0EDBDECBDE3E18B
:1002B000E7BDE7E8E6BDE0E0EBBDEABDE9BDE8BDCE
:1002C000E0937900E0937800EBE0E5BDE0E0E4BD89
:1002D000E9EFE3BDE0EFE0938B00E1E1E0938A001A
:1002E000E0E0E0938900E0938800E1E0E0938100A2
:1002F000E0E9E0938000E0E0E0938700E09386008F
:10030000E0938500E0938400E0938300E8ECE093C1
:100310008200E0E0E0936A00E0E5EABFE0ECE9BFDC
:10032000E8BFE0EAE7BFE0E0E0937D00EAB9E093F0
:100330009B00E8E9E0939A00E6E0E0939D00E0E0AE
:10034000E0939800E7E6E0939900E0E8E8B9E0E0A0
:10035000E0BDE0E2E7B9EFECE6B9E0E0EDB9E0934B
:1003600074007894F1DEE0E0EA93A0E004DFAEE808
:10037000B0E00FDFF8CFFFCFEBBB85E08A95F1F758
:10038000DA9808958BE18A95F1F7E881E295E07FAC
:100390000895B0E00E94CE01A0E3B3CE109639F0EC
:1003A00080EA9FE00197F1F7A8951197C9F70895A2
:00000001FF
