:0C00000014C0FECFFDCFFCCFFBCFFACF29
:10000C00F9CFF8CFF7CF28C0F5CFF4CFF3CFF2CF9D
:10001C00F1CFF0CFEFCFEECFEDCFECCFEBCFF8941D
:10002C00EE27ECBBF1E0FBBFEBBFE5BFF8E1F1BDA8
:10003C00E1BD8DE0A2E0BB27ED938A95E9F780E066
:10004C0092E0A0E6ED930197E9F7EFE5EDBFE2E072
:10005C00EEBFC0EED0E006C0B69B02C0C69801C091
:10006C00C69A1895E0E0EBBBEABBE8BBEFEFE7BB49
:10007C00E5BBE0E0E4BBE2BBE1BBE1E1E3BFE0E018
:10008C00E2BFECBFEFBDEEBDEDBDECBDE7BDE6BD27
:10009C00EBBDEABDE9BDE8BDE2BDE5BDE4BDE3BD38
:1000AC00E5BFE4BFE1E0E9BFE0E0EAB9E0E8E8B9C8
:1000BC00E0E0E0BFE6B9EDB9E6BF7894FFCFFFCF43
:00000001FF
