:0E00000014C0FECFFDCFFCCFFBCFFACFF9CF5F
:10000E00F8CFF7CFF6CFF5CFF4CFF3CFF2CFF1CFC6
:10001E00F0CFEFCFEECFEDCF1EC0EBCFF894EE27A3
:10002E00ECBBF1E0FBBFEBBFE5BFF8E1F1BDE1BD1D
:10003E008DE0A2E0BB27ED938A95E9F780E092E090
:10004E00A0E6ED930197E9F7EFE5EDBFE2E0EEBF35
:10005E00C0EED0E029C0AA93BA93EA93FA93EFB711
:10006E00EA93A0EEB0E0ED91FD913196FE93EE9302
:10007E00E032A3E0FA073CF0E0E0E093E000E0932A
:10008E00E100EFEFE2BB4FD0E415F50509F49498CB
:10009E004AD0E615F70509F49598E991EFBFF99165
:1000AE00E991B991A9911895E0E0EBBBEABBE8BBE9
:1000BE00E7BBEFEFE5BBE0E0E4BBE2BBEFEFE1BB9C
:1000CE00EAE0E3BFE0E0E2BFE0E1ECBFE0E0EFBD7D
:1000DE00EEBDEDBDECBDE7BDE6BDEBBDEABDE9BDD8
:1000EE00E8BDE2BDE5BDE4BDE3BDE5BFE4BFE2E0D2
:1000FE00E9BFE0E0EAB9E0E8E8B9E0E0E0BFE6B980
:10010E00EDB9E6BF7894E8E5F2E02F013F01E3B3E5
:10011E00E0959E2E0DD02F010BD03F01A4E6B0E04E
:10012E0019D0F5CFFFCFE091E000F091E1000895F6
:10013E00E3B3F0E048D17ED0DF01CB01E0E0F0E0A8
:10014E006FE773E4F3D0A0E0B0E088E494E4A0D0CD
:10015E0038D00895109639F08DEC9AE00197F1F7AA
:10016E00A8951197C9F70895552342F4503811F404
:10017E00E0FF04C03196691F791F6BF050E85727D6
:10018E0011F45F9373C05F3F31F0660F000C57950B
:10019E006795752F08955F9300200AF073C06CC0A9
:1001AE0050E8192E1522880F991F9527550F879500
:1001BE0050E8072E0522660F771F7527550F679596
:1001CE000895689401C0E8945F93F2DF703818F0D8
:1001DE007F3F08F44BC056E1571BAAF45195583097
:1001EE000EF4593030F0EFEFFFEF6FEF7FE777F956
:1001FE001AC077275523B9F0EE0FFF1F661F771F22
:10020E005A95D1F710C07727583028F0EF2FF62FD8
:10021E00672F5850F9CF552331F076956795F7959E
:10022E00E7955A95D1F700200AF4C5D05F9108954D
:10023E00689401C0E894309760407040B1F000249B
:10024E0026F0772312F40094B6D0172E7EE11120FB
:10025E0032F07A95EE0FFF1F661F111CF9CFEF2FAC
:10026E00F62F612D5F938ADF5F910895EE27FF27AA
:10027E00662777275F910895EFEFFFEF6FE77FEF28
:10028E005F910895EFEFFFEF6FE77FE75F910895BE
:10029E005F9386DF703851F3903841F30124089450
:1002AE00791F23F41CF300203AF3ECCF0F921F9327
:1002BE002F933F934F93112722279927689FA001D1
:1002CE008F9F302D410D591F6B9F300D411D591FB2
:1002DE008E9F27D0BF9F25D06A9F23D0BE9F1DD053
:1002EE00AF9F1BD0AE9F110D291F391F491F591FDC
:1002FE00E32FF42F652F522F4F913F912F911F9186
:10030E000F9066232AF0550FEE1FFF1F661F02C0C7
:10031E0073954BF229DF5F910895100D211D391F42
:10032E0002C0200D311D491F591F08955F9338DFFC
:10033E00703821F411200AF49FCFA4CF903809F41D
:10034E0095CF01240894970B1BF4D4F30020F3CF20
:10035E00792F1F932F933F934F9311241127222709
:10036E0033274427552790E2AE17BF07860741076C
:10037E0030F0AE1BBF0B860B410B089401C0889466
:10038E00551F221F331F111CAA1FBB1F881F441F7E
:10039E009A9551F7F901612D4F913F912F911F9130
:1003AE00662332F0550FEE1FFF1F661F7A9543F23C
:1003BE00DBDE5F910895F09560957095E195FF4FA6
:1003CE006F4F7F4F08956F2F660F660B762F089530
:00000001FF
